:020000022000DC
:10700000F0A5002089F2020007D604005DF202001C
:107010005DF202005DF202005DF20200000000007D
:10702000000000000000000000000000C1EF0200AE
:107030005DF202000000000079EF02005DF2020044
:107040003DF00200491104003DF002003DF0020055
:107050003DF002003DF002003DF002003DF0020074
:107060003DF002003DF002003DF002003DF0020064
:107070003DF002003DF002003DF002003DF0020054
:107080003DF002003DF002003DF002003DF0020044
:107090003DF002003DF002003DF002003DF0020034
:1070A0003DF002003DF002003DF002003DF0020024
:1070B0003DF002003DF002003DF002003DF0020014
:1070C0003DF002003DF002003DF002003DF0020004
:1070D0003DF002003DF002003DF002003DF00200F4
:1070E0003DF002003DF002003DF002003DF00200E4
:1070F0003DF002003DF002003DF002003DF00200D4
:1071000080F0004002E000BF81F0004142001FBF5C
:107110005FEA410392EA030F7FEA226C7FEA236C65
:107120006AD04FEA1262D2EB1363C1BFD21841405A
:1071300048404140B8BF5B42192B88BF704710F0F0
:10714000004F40F4000020F07F4018BF404211F093
:10715000004F41F4000121F07F4118BF494292EAFB
:10716000030F3FD0A2F1010241FA03FC10EB0C0027
:10717000C3F1200301FA03F100F0004302D54942B4
:1071800060EB4000B0F5000F13D3B0F1807F06D361
:1071900040084FEA310102F10102FE2A51D2B1F159
:1071A000004F40EBC25008BF20F0010040EA03004E
:1071B0007047490040EB0000013A28BFB0F5000FCE
:1071C000EDD2B0FA80FCACF1080CB2EB0C0200FA84
:1071D0000CF0AABF00EBC25052421843BCBFD040D3
:1071E0001843704792F0000F81F4000106BF80F44D
:1071F00000000132013BB5E74FEA41037FEA226C10
:1072000018BF7FEA236C21D092EA030F04D092F0DA
:10721000000F08BF0846704790EA010F1CBF00200E
:10722000704712F07F4F04D1400028BF40F000406B
:10723000704712F100723CBF00F50000704700F08B
:10724000004343F0FE4040F4000070477FEA2262B2
:1072500016BF08467FEA23630146420206BF5FEA83
:10726000412390EA010F40F4800070474FF0000383
:1072700004E000BF10F0004348BF40425FEA000C4A
:1072800008BF704743F0964301464FF000001CE0F2
:1072900050EA010208BF70474FF000030AE000BF48
:1072A00050EA010208BF704711F0004302D5404286
:1072B00061EB41015FEA010C02BF844601460020F8
:1072C00043F0B64308BFA3F18053A3F50003BCFA13
:1072D0008CF2083AA3EBC25310DB01FA02FC6344C0
:1072E00000FA02FCC2F12002BCF1004F20FA02F2C7
:1072F00043EB020008BF20F00100704702F12002BA
:1073000001FA02FCC2F1200250EA4C0021FA02F21A
:1073100043EB020008BF20EADC7070474FF0FF0C1F
:107320001CEAD0521EBF1CEAD15392EA0C0F93EA1A
:107330000C0F6FD01A4480EA010C400218BF5FEABC
:1073400041211ED04FF0006343EA501043EA51112F
:10735000A0FB01310CF00040B1F5000F3EBF490029
:1073600041EAD3715B0040EA010062F17F02FD2A2D
:107370001DD8B3F1004F40EBC25008BF20F0010010
:10738000704790F0000F0CF0004C08BF49024CEA27
:10739000502040EA51207F3AC2BFD2F1FF0340EAB9
:1073A000C250704740F400004FF00003013A5DDC2A
:1073B00012F1190FDCBF00F000407047C2F100026B
:1073C000410021FA02F1C2F1200200FA02FC5FEA58
:1073D000310040F1000053EA4C0308BF20EADC70A2
:1073E000704792F0000F00F0004C02BF400010F414
:1073F000000F013AF9D040EA0C0093F0000F01F0C1
:10740000004C02BF490011F4000F013BF9D041EAE2
:107410000C018FE70CEAD15392EA0C0F18BF93EAE4
:107420000C0F0AD030F0004C18BF31F0004CD8D10E
:1074300080EA010000F00040704790F0000F17BF95
:1074400090F0004F084691F0000F91F0004F14D0DB
:1074500092EA0C0F01D142020FD193EA0C0F03D133
:107460004B0218BF084608D180EA010000F0004036
:1074700040F0FE4040F40000704740F0FE4040F411
:10748000400070474FF0FF0C1CEAD0521EBF1CEAB0
:10749000D15392EA0C0F93EA0C0F69D0A2EB0302CE
:1074A00080EA010C49024FEA402037D04FF0805368
:1074B00043EA111143EA10130CF000408B4238BF2D
:1074C0005B0042F17D024FF4000C8B4224BF5B1A3B
:1074D00040EA0C00B3EB510F24BFA3EB510340EA89
:1074E0005C00B3EB910F24BFA3EB910340EA9C0037
:1074F000B3EBD10F24BFA3EBD10340EADC001B01A7
:1075000018BF5FEA1C1CE0D1FD2A3FF650AF8B424A
:1075100040EBC25008BF20F0010070470CF0004C57
:107520004CEA50207F32C2BFD2F1FF0340EAC25082
:10753000704740F400004FF00003013A37E792F043
:10754000000F00F0004C02BF400010F4000F013AA1
:10755000F9D040EA0C0093F0000F01F0004C02BF9C
:10756000490011F4000F013BF9D041EA0C0195E705
:107570000CEAD15392EA0C0F08D142027FF47DAF9E
:1075800093EA0C0F7FF470AF084676E793EA0C0F8E
:1075900004D14B023FF44CAF08466EE730F0004C8C
:1075A00018BF31F0004CCAD130F000427FF45CAF1C
:1075B00031F000437FF43CAF5FE700BF42000ED2E2
:1075C000B2F1FE4F0BD34FF09E03B3EB126209D41E
:1075D0004FEA002343F0004323FA02F070474FF0D4
:1075E0000000704712F1610F01D1420202D14FF049
:1075F000FF3070474FF00000704700BF53B94AB9E1
:10760000002908BF00281CBF4FF0FF314FF0FF30AA
:1076100000F00CB8ADF1080C6DE904CE00F008F8EC
:10762000DDF804E0DDE9022304B07047704700BFD5
:107630002DE9F04786468C460846089E1546744656
:107640001946002B40F0C2808542B2FA82F245D939
:107650004AB1C2F1200300FA02FC2EFA03F395406E
:1076600043EA0C0C94404FEA154EA8B2BCFBFEF85E
:10767000230C0EFB18CC08FB00F943EA0C43994598
:1076800028D9EB1808F1FF3704D2994502D9A8F19F
:1076900002072B44A3EB0903A4B2B3FBFEFC0EFBD1
:1076A0001C330CFB00F044EA0344A04214D92C190B
:1076B0000CF1FF3304D2A04202D9ACF102032C44F6
:1076C000241A43EA07401EB1D4400023346073609B
:1076D000BDE8F0874746DDE76346F1E792BB431B11
:1076E00001214FEA154EAFB2B3FBFEFC200C0EFB9E
:1076F0001C330CFB07F840EA0343984562D9EB18AA
:107700000CF1FF3004D2984502D9ACF102002B44B1
:10771000A3EB0803A4B2B3FBFEFC0EFB1C330CFB73
:1077200007F744EA0344A7424ED92C190CF1FF3362
:1077300004D2A74202D9ACF102032C44E41B43EA71
:107740000040C0E7C2F1200320FA03F195409040C9
:107750002EFA03F303434FEA154EAFB2B1FBFEFC22
:107760000EFB1C10190C0CFB07F841EA0041884580
:1077700004FA02F422D969180CF1FF3004D28845CA
:1077800002D9ACF102002944A1EB08019BB2B1FB84
:10779000FEFC0EFB1C110CFB07F743EA01439F4262
:1077A0000ED9EB180CF1FF3104D29F4202D9ACF193
:1077B00002012B44DB1B41EA004192E76046E3E70C
:1077C0006146F7E76046A3E76346B7E7834206D919
:1077D00016B9002108467BE7C6E900E0F9E7B3FAED
:1077E00083F78FB9834201D3724508D8BEEB0204F8
:1077F00060EB030301209C461EB9002168E7384670
:10780000FAE7C6E9004CF8E7C7F1200CBB4022FAC2
:107810000CF41C432EFA0CF120FA0CF3B84001438F
:107820004FEA14490EFA07F5B3FBF9F81FFA84FE84
:1078300009FB18300B0C08FB0EFA43EA00439A458B
:1078400002FA07F240D9E31808F1FF3004D29A4552
:1078500002D9A8F102002344A3EB0A0389B2B3FBC7
:10786000F9F809FB183308FB0EFE41EA03418E4587
:107870002CD9611808F1FF3304D28E4502D9A8F142
:107880000203214443EA0040A0FB0298A1EB0E0151
:107890004145CE46434602D306D14D4504D2B9EB0D
:1078A000020E68EB04030138002EA6D0B5EB0E02E1
:1078B00061EB030101FA0CFC22FA07F34CEA030323
:1078C000F940C6E9003198E74046C5E74346D9E7A5
:1078D00073B5C14DD5F85431996811F0010124D127
:1078E00001AA40F6034008F063FB0446002867D174
:1078F000019CA3681B78ABB909F0E2FDBFF35B8F75
:10790000D5F8CC30BFF35B8F05F1CC0203F009034F
:10791000BFF35B8F52E8001F42E800300028F9D126
:10792000BFF35B8F20461CF0D5FF01AA002141F276
:10793000030008F03DFB0446002841D1019EA74802
:10794000B1680822013125F0D1FF30461CF0C2FF9A
:10795000214601AA41F2010008F02AFB044678BB47
:10796000019883685A7885F868205A88A5F86A20B3
:107970001A7985F86920B3F80720A5F86C20B3F8C8
:107980000530A5F86E301CF0A5FF214601AA41F292
:10799000020008F00DFB044690B9019E9048B168C2
:1079A0004022013125F0A2FF8D4826F026F830460E
:1079B0001CF090FF95F874305A0604D46FF012044E
:1079C000204602B070BD214601AA42F2030008F031
:1079D000EFFA04460028F3D1019E8248B1680822DC
:1079E000013125F083FF30461CF074FF214601AAC7
:1079F00042F2020008F0DCFA04460028E0D1019CC3
:107A0000A368B3F80120A5F8FC2091B221B1DA787F
:107A1000754811462BF0CEF820461CF05BFF95F818
:107A2000746016F0200618D1022140F66D4008F06F
:107A300063FA0446002800F0CC800221083029F0C7
:107A4000F2FE0123037046702146324640F66D4037
:107A500008F0AEFA04460028B2D195F894301B071E
:107A600012D501AA002142F21C0008F0A1FA044636
:107A70000028A5D101988368D3F80120D3F80530F8
:107A8000C5E936231CF026FF95F8D0309E0624D594
:107A90000DF10201684626F04EFA044600288FD107
:107AA000042142F2240008F027FA0646002800F0DC
:107AB00090800421083029F0B6FEBDF80030038024
:107AC000BDF8023043802246314642F2240008F0DD
:107AD0006FFA044600287FF473AF95F8D0305C0647
:107AE00010D501AA002142F22A0008F061FA0446EA
:107AF00000287FF465AF019883685B7885F81831BA
:107B00001CF0E8FE082142F2010008F0F5F90446F5
:107B100000285ED00821084429F085FE95F8D01091
:107B200011F0400F024640F2022308BF03238807EA
:107B30004CBF43F02C0043F00C008B0695F8D1307D
:107B400048BF40F0400013F0090F95F89A3018BF75
:107B500040F4006003F00603CE0748BF40F0100079
:107B6000062B08BF40F4C070002126F0C4F821465F
:107B7000002242F2010008F01BFA044600287FF4BC
:107B80001FAF95F87430B5F8FC1098062ED4C9B91B
:107B900001AA41F2050008F00BFA044600287FF420
:107BA0000FAFB5F8FC30019C4BB9A368B3F80120C6
:107BB000A5F8FC209A880C4811462AF0FBFF2046C5
:107BC0001CF088FE082140F6014008F095F90446B3
:107BD00088B96FF06804F3E61000002080000020F0
:107BE00088000020E0000020100100200029E9D1D9
:107BF0006FF00404E4E60821084429F014FE95F827
:107C0000D030D907024657D42F484FF0005126F004
:107C100072F82146002240F6014008F0C9F90446F6
:107C200000287FF4CDAE014601AA4FF6014008F0CE
:107C3000BFF9044648BB01981CF04CFE214601AA3E
:107C40004FF6024008F0B4F90446F0B9019E1F480F
:107C5000B1680222013125F049FE30461CF03AFE9F
:107C600095F8B9305B0710D501AA21464FF60340BD
:107C700008F09EF948B9019C1548A16801221144F9
:107C800025F034FE20461CF025FE26F09FFB04461E
:107C900000287FF495AE0AF0B9FD044600287FF471
:107CA0008FAEEB79002B3FF48BAE0821094825F00D
:107CB00063FF08F041FD83E601A1D1E90001A6E7D9
:107CC000908800020080002010880002C900002077
:107CD000C8000020DC0000202DE9F843D0E90B3576
:107CE000D0F828805C193034A0450F46164619D8C4
:107CF0001D4DA3FB05011AA3D3E90023FFF77EFC6A
:107D00000346A4EB0800A0FB050123F07F4414A365
:107D1000D3E90023FFF772FC20F07F403C60306025
:107D2000BDE8F883DFF840900DA3D3E90023A8FB5A
:107D30000901FFF763FC044605F1300008A3D3E90D
:107D40000023A0FB0901FFF759FC24F07F4420F039
:107D50007F403C603060BDE8F88300BFAFF3008037
:107D60008D49FD1A0700000000CA9A3B0000000080
:107D7000002800F0BC812DE9F04F264D95F86A30BF
:107D8000D9078FB000F1ED8195F8292095F83530AD
:107D900005EB820205EB8303D76AD3F8388077B30B
:107DA0003E4616F8020BC0F380100FF09DFF06222E
:107DB0000146044605F16B0025F098FD0622214698
:107DC000304625F093FD3B785A0606D5062130460D
:107DD0000EF004FC002800F0C681464616F8020B9F
:107DE000C0F380100FF080FF0622014604460A48C7
:107DF00025F07CFD21463046062225F077FD3B78B4
:107E000013F00E0F40F00C812B6A3BB10C200FB029
:107E1000BDE8F08F54580020BF58002011F0E0FF5B
:107E20008146002800F0AC8111F0E6FF8246002870
:107E300000F0A38114F084F90446002800F0A28128
:107E40004FF6FF73406F238504F11C030B9300284A
:107E500000F08F8104F1680204F164010EF0CAFBA6
:107E6000B4F8603094F87A20DFF834B323F4EF6389
:107E700023F0070343F4887343F00103A4F8603050
:107E800094F8393022F00702594684F87A2003F03A
:107E90003F0394F83C2063F07F0384F8393022F0EC
:107EA000070211F8013B84F83C2094F8D62003F037
:107EB000010363F300020B93BA4B84F8D62000262B
:107EC00006224FF01B10C4E91603A4F8C020C4E931
:107ED00012666667A4F878606686C4F82E6084F837
:107EE0003B602665A4F8C460A4F8C860A4F8D0601C
:107EF000A4F8CC6004F1D70025F0F8FC94F8D60083
:107F00000B9B63F3410006220BF1010184F8D600BC
:107F100004F1DD0025F0EAFC94F8E43084F8F26026
:107F200023F0070384F8E43094F81A31A4F8F060E1
:107F300066F3041384F81A31C4F81461A4F81861C4
:107F4000A4F8306111F08CFA94F84A31A4F8486131
:107F500023F0030384F84A3194F87A30A4F850618E
:107F600023F0180384F87A3094F8763184F853615A
:107F700023F0070384F8763194F89631C4F85491CD
:107F800066F3861384F8963194F8C631A4F87461C8
:107F900066F3C303002284F8C6310023C4E94E010E
:107FA000C4E9502384F8E560A4F89461A4F8A661BC
:107FB000C4F8EC60A4F8C461A4F8D06114F028FC03
:107FC000A4F8D20014F02AFCD4F8D421764BA4F8FB
:107FD000D4001340C4F8D43114F026FC94F8D831FE
:107FE00060F3020384F8D83114F024FC04F11C037C
:107FF0002B6294F8D831C4F8DC6160F3C503C5E99D
:10800000189AC4E97A66C4E97866C4E905662670F8
:10801000E46184F8D83119F00DFE002840F0A58005
:1080200095F824300121C3F342030DF133008DF89C
:1080300033300EF069FC024600285AD098F801103F
:10804000384612F00DFE5949B5F868600024312316
:10805000AB60C5E9054450A3D3E900232C706C60E4
:10806000EC60A0FB0101FFF7C9FA28610FF00CFEDC
:1080700080463EB93C7804F00F04A4F10104B4FA40
:1080800084F4640995F824002B6964F3000010F06F
:10809000010485F8240033D00020454A454F04935D
:1080A00002240DAE019305920321CDE9020008964A
:1080B000069543460090079722460D940FF0B8FCB2
:1080C000314611F045FFA0B93B4905914AF2D8333A
:1080D0000093CDE90300CDE90100079708960695C6
:1080E0004346012203210D940FF0A2FC2EE012F072
:1080F00009BD2B6A002B3FF489AE12F0C1FC85E666
:108100002E4A2F48049303F24713069502949121B7
:108110001360A6FB000301FB0631264B0793244B9B
:1081200005934FF6FF730992022703930DAE1AA32E
:10813000D3E900230D970896FFF760FA4346CDE98F
:1081400000403A46204603210FF01CFC314611F056
:10815000FFFE0028CDD195F86A3043F0010385F881
:108160006A30002053E6122051E612F089FC032009
:108170004DE604F16C0060676CE6484611F036FE8F
:10818000072044E6504611F03DFE484611F02EFE11
:10819000F6E700BFAFF300808D49FD1A070000002D
:1081A000866E0500480148010000FFF600CA9A3BB0
:1081B000D1AC03002D95030021A8030048580020EE
:1081C000002AE7840000000070B590F824308AB0DF
:1081D000C3F342030D46044601210DF12300164668
:1081E0008DF823300EF090FB71780246284612F08D
:1081F00037FD1D491AA3D3E90023A0FB0101FFF7B6
:10820000FDF923699842054621D21B1A00220192EA
:10821000164A0293164BA21AA3FB023202219209BC
:1082200000230A4409AE099112490591CDE90333AF
:108230000321D2B20696009318460FF06DFC31462A
:1082400011F086FE38B9256100200AB070BDFBD957
:10825000C21A0023DBE70C200AB070BDAFF3008028
:108260008D49FD1A0700000000CA9A3B54580020AF
:1082700009CB3D8D2D95030038B5194C9DF810E0C4
:1082800094F840C01CF0010522D163F3420C400178
:1082900094F8323061874FEACE0E0EF0180E00F0DF
:1082A000200040EA0E0023F0380303430D4884F811
:1082B00032309121A2FB000384F840C001FB02315F
:1082C00005A3D3E90023FFF799F9E063284638BDF9
:1082D0000C25284638BD00BF8D49FD1A0700000057
:1082E000E0580020002AE78410B504469DF80800F5
:1082F000E2834FEA411CC000A17D00F018000CF0A1
:10830000200C4CEA000C0C4821F038014CEA010C1E
:10831000A3FB0002912101FB032184F816C004A3F2
:10832000D3E90023FFF76AF9206210BDAFF30080A4
:108330008D49FD1A07000000002AE78400000000B4
:108340002DE9F043044600F1340190F8400094F820
:108350003230C0F3400060F386138DB084F83230C1
:108360000FF0D2FC94F83220638F4748E46102F0AA
:108370007902002584F832209121A3FB0002C4E990
:108380000555257001FB03213DA3D3E90023FFF729
:1083900035F93123A360E36B656018339842E560DB
:1083A00098BFE563394D3A4A98BF03462361651B80
:1083B000A2FB052506460FF067FC236AC5F3871567
:1083C0000746002B40D00DF12C08CDF820800694F4
:1083D000638F2D4A4FF00009A3FB0202CDF80C90E9
:1083E000912101FB0321236904932A4B07932A4B14
:1083F000059302230B9322A3D3E90023FFF7FEF892
:10840000104619464FF47A720023FFF7F7F8043547
:10841000EDB2CDE9016003213B462A46CDF800903C
:1084200048460FF005FB414611F092FD40B994F823
:10843000403043F0010384F840300DB0BDE8F083D4
:108440000C200DB0BDE8F0830DF12C08CDE90A3306
:10845000216943460AAA032001F0DEF90028B4D1BD
:108460000B990E4806A3D3E90023A1FB0001FFF7F7
:10847000C5F80A9B20F07F471F44A6E7AFF30080B2
:108480008D49FD1A07000000002AE784E05800200B
:10849000F1F0F0F02D95030009B2030000CA9A3BF9
:1084A0002DE9F04FC38D458EB0F8F4601D4490F86F
:1084B0001A31ADB22944174613F007028BB00446B7
:1084C00089B20AD0013A042A00F27E83DFE812F072
:1084D00072010902040252020C02891B1FFA81F880
:1084E000090400F1D38190F93930002BC0F28C825D
:1084F00094F8F03084F8F13094F8942194F89531A0
:1085000094F8181184F81911934206D094F8963112
:1085100003F00F03062B00F0D182994BD4F814918D
:108520001A68944204BF00221A60B9F1000F00F0EB
:10853000C381D9F80030002B00F0BE815B68628DEA
:10854000C4F81431B4F81C31934205D1B4F81E11AB
:10855000A28D914200F03A82238DA9F806301923AA
:1085600089F80430002389F81C30B4F81C31A9F8CC
:108570001E30B4F81E31A9F82030B4F82031D9F8F3
:108580000000A9F82230494611F042FC11F04AFCE3
:10859000A368002B09DAE168626823F00043914286
:1085A0002CBF7F18BF18A360FF1A618DB4F81C910F
:1085B00011FB08F189B2B1FBF9F319FB03F080B2AA
:1085C00081421FFA83FA80F06681401A40F2E2424B
:1085D0006C4902FB00F0A0FB010167A3D3E9002373
:1085E000FFF70CF820F07F400744E38D1E4494F918
:1085F0003930761B564440F2E24B002BE6850BFBEC
:1086000009F6C0F20F82D4F824115E485AA3D3E9C8
:108610000023A1FB0001FEF7F1FF20F07F48354663
:1086200008F10108584AB4F82031B4F81E0157493E
:10863000A4F82A903244B2FBF6F2A4F8C62042F223
:10864000107202FB03633144013BB1FBF6F1B3FB53
:10865000F6F38AB2A4F8C230831D9A42A085A4F82A
:10866000CE2004DDC0F57F43FA331A4492B294F869
:108670001A31A4F8CA201B0744BF0023A4F8C43051
:10868000022101201BF0ACFE0022022182460120C3
:108690000EF000F83E494FF4FC7220460DF08AFFC0
:1086A00000F105095FFA89F93A4B00944A46012125
:1086B00000200FF049FA30F002030CD0364A374957
:1086C000374840F6AF5323F0F8F9404080F3118863
:1086D0004FF0030002DF2B4EA5FB066B26A3D3E968
:1086E000002330465946FEF789FF2E4B20F07F4588
:1086F000A5FB03310722F01A02FB05116BEB010108
:108700004FF47A720023FEF779FFCDE90150089407
:108710000694CDF80080216994F9395022480491DB
:108720002249234C079431EA250128BF01460591CF
:108730004FF6FE713B4603914A46012100200FF09F
:1087400077F930F002030CD0134A1449144840F66C
:10875000C95323F0B2F9404080F311884FF0030071
:1087600002DFBAF1000F40F0578100200BB0BDE8E6
:10877000F08F00BFAFF300808D49FD1A07000000A5
:10878000D05F002000CA9A3BFF5962027FC3C90133
:10879000982C002089B80300705F05005060050028
:1087A000205A05008D49FD1A79050400650704006B
:1087B00031B80300DFF82883012011F039FB0646A9
:1087C000002800F0D981C7480DF0BCFE05460028FE
:1087D00000F0D281C44B1A68002A00F0788111F0B1
:1087E00049FB3368D4F814215A60C4F814612B791A
:1087F000BE4A43F003032B710C236B710023EB7112
:1088000094F828312B72D4F82431A2FB03239B0A5D
:10881000A5F80930B4F81C31A5F80B30B4F81E31B6
:10882000A5F80D30B4F82031A5F80F3094F81A31BE
:10883000C4F8FC70032262F3020384F81A31A368BF
:10884000002B0ADAE168626823F0004391422CBFF2
:108850007F18BF18FF1AC4F8FC70A54B0122093518
:10886000C4F8F85002211046C3E902480DF046FF53
:1088700060B1A04AA049A14840F63D4323F01DF94C
:10888000404080F311884FF0030002DF6FF0760064
:108890000BB0BDE8F08F09FB1311994840F2E24399
:1088A00089B203FB01F1A1FB00018BA3D3E90023F3
:1088B000FEF7A4FE3F1A98E68E4A92498F4840F68A
:1088C000FA4323F0FAF8404080F311884FF0030098
:1088D00002DFD9F8003031E66FF00F000BB0BDE8D1
:1088E000F08FDFF8248267E7B4F8A61194F8F0005F
:1088F00094F8182184F8F10084F81921002940F037
:10890000078194F8942184F895217749D4F8F820C8
:10891000D4F8DC0100250D60D4F8E051A2F1090182
:10892000002800F02181DB0600F11E8194F87631E9
:108930009F0700F1198194F8D731DE0700F1148107
:10894000D4F8E831984200F02281002D00F02E8109
:10895000D4F8E4311B6842F8093CD4F8E4311960DA
:10896000C4F8E41152F8093C002B00F008816FF0C4
:108970008B00FBE6A38DD4F8F8200633194489B2A6
:10898000A4F8F410118194F81A31D4F8E011D4F855
:10899000DC0123F0170343F0100384F81A31A2F12D
:1089A0000903002900F0EE80D4F8E411096842F8C8
:1089B000091CD4F8E4110B60C4F8E43152F8092C16
:1089C000002A7FF463AFC4F8EC315FE740F2E24184
:1089D000B4F8202101FB03F342F2107101FB0232D3
:1089E000013AB2FBF3F3B4F8C2209BB29A427FF48F
:1089F000B3AD0123D9F8000089F80430494611F0DD
:108A000007FA11F00FFAC3E590F8E530002B3FF4B8
:108A10006FAD80F8E5206FE50122022110460DF0D0
:108A200039FEA2E6226CA36C02FB1833A36419F092
:108A300053F9054694F8E400DFF8C480C0F3C2009F
:108A400019F04CF9054406FB05F5304B94F8282144
:108A500005F5742505F23F25A3FB0535AD0CA36C88
:108A600025640BFB02F205FB0AF022657208034441
:108A7000963A934228BF1346C4E911230023A0FB72
:108A80000801C4F8EC3014A3D3E90023FEF7B6FDC7
:108A9000164B3F1AD4F82401A3FB0030800A0BFBCD
:108AA00000F0A0FB08010CA3D3E90023FEF7A6FD0C
:108AB000751BB4F81C9120F07F48B3E5B4F8A631DB
:108AC000E3BB84F895210023A4F8C83025E51C6099
:108AD00085E600BFAFF300808D49FD1A0700000056
:108AE000F50E0400645A0020D05F00205917B7D15A
:108AF000500D0020705F05002C5D0500205A050018
:108B000000CA9A3B3C6005007198020083DE1B435B
:108B1000B4F89621D4F8A001C4F8980102F0C0027C
:108B2000B4F8A401A4F89C0142F010020020A4F8BB
:108B30009E11A4F89621A4F8A601E6E6A4F89E31B9
:108B4000B4F8963103F0C00343F01003A4F8963153
:108B5000D4F8A031C4F89831B4F8A431A4F89C3109
:108B60000023A4F8A631AEE7002D7FF4F1AE42F861
:108B7000090CC4E97711F3E66FF06800F6E5C4F874
:108B8000EC11F4E642F8090CC4E9773314E7036802
:108B9000C4F8E831002D7FF4DBAE036842F8093CED
:108BA000D4F8DC311960C4F8E011D9E6037903F098
:108BB0000303032B02D0C4E97800C9E6C379032B71
:108BC000EBD00A2BF7D1E8E7074A0849084840F6F6
:108BD0009A4322F072FF404080F311884FF0030067
:108BE00002DF4FF00008E7E5705F0500805A0500DE
:108BF000205A0500000000002DE9F04F0B681468B2
:108C0000D3F80090037F93B0C3F3801B05460F4653
:108C1000164600F11E01062210A8CDF82CB024F053
:108C200065FE10A906220EA824F060FE95F81C80AF
:108C3000D5F800C0CDF828C04FEAD81809F16B0A62
:108C40000EAB5A465146404613F0FAFD00284CD16F
:108C500094F8D6200C906BF3410284F8D6200EA92C
:108C6000062204F1DD0024F041FE94F8D62068F3DA
:108C70000002514684F8D62004F1D700062224F0E1
:108C800035FE06F10408032205F12E0106F1080065
:108C900024F02CFE06F1180A042205F12A014046B0
:108CA00024F024FE052205F13A01504624F01EFE70
:108CB000052150460DF028FE727F00F03F0060F362
:108CC0000502727795F83F20C2F30401B177A98EAF
:108CD000F181012802F01F0289B206D91B3202F08D
:108CE0001F020B2A01D80C9BC9B90022C9F8142015
:108CF00096F820300A9862F3000386F82030EC687A
:108D0000012629462E7111F083F82068267121462C
:108D100011F07EF811F086F813B0BDE8F08F3A68D4
:108D20005360EB8E338295F83F3094F8E420B6F828
:108D30000EA05B0963F3C5026B8E84F8E42040F259
:108D4000E24202FB0AFA0D9318F0C6FF834694F83C
:108D5000E400C0F3C20018F0C1FF0BEB00030AFBF4
:108D600003F3AF4903F5742303F23F23A1FB03137D
:108D70009B0C73624FEA5A03963BB36295F831300D
:108D800040F2E24202FB03F3B363B5F838B0A54A00
:108D9000A54B42F210715244B2FBFAF2A4F8C6207D
:108DA0001FFA8BF201FB02A25344013AB3FBFAF320
:108DB000B2FBFAF2A4F8C2209AB2A4F8CE20318A0B
:108DC000881D824204DDC1F57F41FA310A4492B226
:108DD000A4F8CA204146042204F1E80024F086FDEC
:108DE0002B4613F81C2FC2F340120C92DA0700F145
:108DF000DD809DF82C30AB774FF4807306220EA9EE
:108E0000AB8305F11F0024F071FDF389EB84338AF5
:108E10002B85A5F82AB094F8E430C3F3C20385F893
:108E20002C30204613F098F9B081E88029460A9842
:108E30007D6810F0EDFFB3890C9AEB801C232B7139
:108E40002B68002A40F0C780DDF830B085F81CB0F0
:108E50001846294610F0DCFF10F0E4FF96F84500B4
:108E6000B6F84080B6F84250012100F0070018F033
:108E700045FD454405F56175291883466B484FF05B
:108E800000083123A360A1FB000163A3D3E9002301
:108E9000C4F80480C4F80C80FEF7B0FB20F07F40DB
:108EA00020610D99FB68756A40F2E24202FB0133D2
:108EB00003F2B243A3EB0B034246022101200A93C3
:108EC0000DF0E8FB484612F0B3F8821C584BCDF881
:108ED0000090D2B2404601210EF036FE0128AAEBE6
:108EE000050500F0858099F82430DB076BD4204617
:108EF00013F032F9DFF83491A5FB098546A3D3E9D5
:108F00000023824629464046FEF778FBBB68494A63
:108F100007920AF10507A3F1490A474B069420F08E
:108F20007F46A6FB0331B8EB0300444B05934FF497
:108F3000EB73089323694FF0000BCDE903B34FF0B7
:108F4000070303FB061165EB01014FF47A7200235E
:108F5000FEF754FB0A9BCDE90160A3FB09012EA398
:108F6000D3E90023FEF74AFBFFB220F07F400090D8
:108F700053463A46012158460EF05AFD30F002039E
:108F80000CD02F4A2F49304840F2D71322F095FDDC
:108F9000404080F311884FF0030002DF01220221DC
:108FA00010460DF077FB13B0BDE8F08F244A274937
:108FB0002548FF2322F081FD404080F311884FF0C7
:108FC000030002DF15E70023012200931846114633
:108FD0000EF0BAFD8BE7727F0A9342F040024046E2
:108FE000727718F03DF84FF0010B0A9BF0832DE7E4
:108FF00010F0EEFF81453FF476AF114A1449124854
:1090000040F2A12322F059FD404080F311884FF037
:10901000030002DF67E700BF8D49FD1A070000006B
:1090200083DE1B43FF5962027FC3C90100CA9A3B1A
:109030003D0504000D0504008D49FD1A7905040065
:109040008861050050600500205A0500345B05006A
:10905000E4610500000000002DE9F04F8BB0CDE980
:10906000040100209DF85490BDF858A0BDF85CB0F4
:10907000BDF8607006921E4612F0A4F9002800F0B8
:10908000A78109F00104054620460EF02DFE03904D
:10909000002C56D1149B03992046324613F0D0FB86
:1090A000002840F099812B6A05F11C020792002BE1
:1090B0004ED0D5F82080D8F8004006F0010698F888
:1090C0004400C0F3C00100F0070018F015FCB8F828
:1090D0004010B8F8423000F561700144D848194496
:1090E000A1FB0001D4A3D3E90023FEF787FA20F007
:1090F0007F40206195F84030149969F3420385F868
:10910000403095F8333066F3000385F8333006229B
:1091100005F1240024F0EAFB06992F86DDE90423FB
:1091200005F11C0000910021FFF7DEF818F082FD28
:10913000002840F055812846FFF702F90BB0BDE842
:10914000F08F06210DF04AFA0028A3D11220F5E78E
:1091500010F046FE0790002800F0B48112F0F0FFF6
:109160000446002800F0AB8120300DF0E1FB04F153
:109170001C08002840F07681032104F1240018F037
:1091800071FA606FA4F82CB04FF6FF73A4F82AA010
:109190002385002800F0738104F1640104F1680262
:1091A0000DF028FAB4F86030A64A23F4EF6323F0F8
:1091B000070343F4887343F00103A4F8603094F884
:1091C0007A3023F007034FF0000B84F87A304FF029
:1091D0001B13C4E91632C4F874B0A4F878B0C4F80C
:1091E0002EB0A4F832B004F1340017F0E5FE94F884
:1091F000393060F30503012184F839300DF127007F
:1092000018F030FA9DF827208F4BA08D84F83BB0E2
:10921000A3FB0213DB0803EB4303A2EB830294F8E6
:1092200039308A49A4F8C4B003F03F03053284F80A
:10923000393094F83C3084F83A2040F2E24202FBA4
:109240000AF223F00303114484F83C30B1FBF2F13D
:109250007F4BA4F8C61042F2107101FB07211344A2
:109260000139B3FBF2F3B1FBF2F2A4F8C2200622FB
:10927000A4F8C020811D9AB28A42A4F8C8B0A4F80C
:10928000D0B0A4F8CCB0A4F8CE2002DD063A121A71
:1092900092B294F8E430A4F8CA2023F0070384F8CB
:1092A000E43094F81A314FF0000A6AF3041384F89A
:1092B0001A3184F8F2A0A4F8F0A0C4F814A1A4F81C
:1092C00018A1A4F830A110F0CBF8079BC4F85431D2
:1092D00094F84A31A4F848A123F0030384F84A31F2
:1092E00094F87A30A4F850A123F0180384F87A3067
:1092F00094F8763184F853A123F0070384F876318B
:1093000094F89631A4F874A16AF3861384F8963120
:1093100094F8C631A4F894A16AF3C303002284F838
:10932000C6310023C4E94E01C4E95023A4F8A6A124
:10933000A4F8C4A1A4F8D0A113F06AFAA4F8D2004A
:1093400013F06CFAD4F8D421424BA4F8D4001340A3
:10935000C4F8D43113F068FA94F8D83160F30203FA
:1093600084F8D83113F066FA94F8D8311499C4F817
:10937000DCA160F3C50384F8D83194F8D630C4F882
:1093800004A006F0010666F3410384F8D6303123C9
:10939000A3600622C4E97AAAC4E978AAC4F80CA09A
:1093A00004F1DD0024F0A2FA94F8D630039969F3B1
:1093B000000384F8D630062204F1D70024F096FA90
:1093C000C5F82080C4E905AA84F800A0E46176E627
:1093D0000C200BB0BDE8F08F0B200BB0BDE8F08F78
:1093E0002C6AA36D63B11C4A1C491D4840F2D4434A
:1093F00022F063FB404080F311884FF0030002DF4E
:1094000004F14C0104F148000DF0F8F8064600287C
:1094100039D02768A665D7F85441002C41D02046A2
:1094200010F0E4FC384612F091FE002303202B627A
:109430000BB0BDE8F08F00BF8D49FD1A070000009A
:1094400000CA9A3B48014801ABAAAAAAFF59620286
:109450007FC3C9010000FFF614620500645E0500C9
:10946000205A0500184A19491948C42322F025FB3F
:10947000404080F311884FF0030002DF7CE604F1E6
:109480006C00606788E6104A1249114840F2D643E2
:1094900022F013FB404080F311884FF0030002DFFD
:1094A000B7E7094A0B490A4840F2DD4322F005FBC1
:1094B000404080F311884FF0030002DFAFE70798C8
:1094C00010F094FC072039E614620500045C0500E6
:1094D000205A0500C85F05002DE9F04781468CB091
:1094E000044619F81C6F8846154600F1240106222F
:1094F0000AA824F0FBF9277F19F0010FC6F3C01664
:10950000C7F3401740F0CB8000230AA90622A677B4
:10951000A38304F11F0024F0E9F9D8F80030D3F850
:109520000090EB89E3842B8A2385B9F8303063857A
:1095300018F0D0FB84F82C002E68304612F00CFE98
:10954000A881E080D8F804A02068214610F060FCD3
:10955000AB89AAF806301C23DAF800408AF80430F8
:10956000002F40F0AA80514620468AF81C7010F067
:109570004FFC10F057FCB268736895F84400EF890F
:10958000D8F80C409A4238BF1A46C0F3C00140F2E6
:10959000E24300F0070003FB07F7924618F0ACF92E
:1095A000203400220221241A01200DF073F84846CD
:1095B00011F0E0FE021D484BCDF80090D2B201211F
:1095C00000200EF0C1FA30F002030CD0434A4449A7
:1095D000444840F2E53322F070FA404080F31188AD
:1095E0004FF0030002DF4FF000094B460322012138
:1095F000CDF8009048460EF0A7FA304612F0ACFDC8
:10960000D8F80830A3F11808A8EB0A08DFF8D8A0AA
:1096100005462FA3D3E90023A7FB0A01FDF7EEFFC0
:109620001946324B0793324B059340F21543069689
:10963000089333690746CDE90393104600234FF49E
:109640007A72FDF7DBFF22A3D3E90023CDE9017095
:10965000A4FB0A01FDF7D2FF053520F07F40EDB2F3
:10966000009043462A46012148460EF0E1F930F0C9
:1096700002030CD0194A1A491A4840F2164322F044
:109680001CFA404080F311884FF0030002DF0122F2
:10969000022110460CF0FEFF0CB0BDE8F0870F4A27
:1096A000144910484FF4597322F007FA404080F3F0
:1096B00011884FF0030002DF26E76B7F43F0400381
:1096C0006B77281D17F0CCFC0127E8834BE700BF20
:1096D0008D49FD1A070000003107040014620500DF
:1096E00050600500205A050000CA9A3B3507040067
:1096F00065070400345B0500053838B5C3B2052B97
:1097000020D880B20D4612F02FFD0446D0B190F95A
:109710003930002B16DB90F86000C0F3C00100F078
:10972000070018F0E9F80A4900F2146006A3D3E92B
:109730000023A0FB0101FDF761FF20F07F402860BE
:10974000204638BD002038BD8D49FD1A07000000B5
:1097500000CA9A3B000000002DE9F04186B005AC3C
:109760000094039216461D46044604AB03AA022049
:1097700017F020FBFF2830D0DDE90413244F0B4401
:10978000A3FB07014FF0070808FB03111EA3D3E951
:109790000023FDF733FF803028600398831B1B02F2
:1097A0001ED431460EF072FA0146A0FB070716A33D
:1097B000D3E9002308FB0171FDF720FF2A6802446A
:1097C000002A2A6009DB40F2E24303FB04F09042E6
:1097D00003D2121A8242FCD82A6006B0BDE8F0819A
:1097E000014630460EF052FA0146A0FB070706A3D9
:1097F000D3E9002308FB0171FDF700FF2A68121A64
:10980000DEE700BFAFF3008000CA9A3B0000000013
:109810008D49FD1A0000000010B584B003AC9C46D1
:10982000009402AB644617F0C5FAFF2812D0DDE9B8
:1098300002230D481A44A2FB0003072101FB023159
:1098400007A3D3E90023FDF7D9FE80302060002074
:1098500004B010BD6FF00900FAE700BFAFF300805D
:1098600000CA9A3B000000008D49FD1A000000006C
:109870002DE9F043B0F8AC1189B0044640F2E24360
:109880003D48002603FB01F105AD0623C5E901664D
:109890008DF80F30A1FB000135A3D3E90023059615
:1098A000FDF7ACFE0DF10F03019500930490B4F8A1
:1098B0009A31204604AA012117F028F99DF80F00DB
:1098C000B046374604F5D6794FF6FF76B9F800C0B2
:1098D00078B12A460023B44503F1010104D0B2F85F
:1098E00000E0E6451BD00127CBB2834202F1020221
:1098F000F1D108F10108B8F1060F09F10209E5D12B
:10990000D4F8F83027BBBDF8142040F2E24102FB46
:1099100001F1100AC4F824111A7058700EE0834245
:10992000E7D2D4F8F82040F2E24303FB0CF34FEA0D
:109930001C21C4F8243182F800C05170042294F82C
:109940001A3162F3020384F81A3109B0BDE8F083DA
:1099500013F8052C0320024340F6117103F8052C7F
:1099600020221A7003F8040C23F8021C0522E6E7F3
:109970008D49FD1A0700000000CA9A3B0000000054
:1099800038B5044618F07CFFA37DA27DC3F34103E4
:10999000013303F00303032B08BF002363F34202E8
:1099A00014BF03F125002520A27517F063FF63683B
:1099B0000BB123694BB90EF067F9C11C00201AF0F6
:1099C000BFFBBDE838401AF039BC1AF0EBFB054686
:1099D0000EF05AF9C11C00201AF0B2FB1AF02EFC4E
:1099E0001AF0E0FB29460EF051F90B4A0346072115
:1099F000A0FB020201FB032105A3D3E90023FDF72D
:109A0000FDFD23691B1A236138BD00BFAFF3008041
:109A100000CA9A3B000000008D49FD1A00000000BA
:109A2000F0B587B004461AF0BFF9C0B250B917F0CC
:109A300079FFC34821461AF09BF807B0BDE8F04013
:109A40001AF088B91AF0D0F905461AF0CBFA074691
:109A50001AF0D2FA1AF0AAFAEDB206461AF08CFA07
:109A600017F060FF002DE4D0012010F055FB0546F3
:109A7000002800F0EE80A37DC3F3C0001B0700F1B7
:109A800099802B7F6168F6B203F00F02002900F085
:109A9000AA80616891F820108F0700F1A480072A3E
:109AA000C7D0002800F08B80002A40F09D816B7F9A
:109AB000252BBED8042010F02FFB0028B9D01AF0B7
:109AC000C5FB236A064643B9E38B40F2712202FBD1
:109AD00003F3B0FBF3F203FB12062268994B126901
:109AE0000721A2FB030301FB023193A3D3E9002367
:109AF000FDF784FDA0F20453B3429AD31AF02EFA74
:109B0000A67D63681AF07EF92B7F05A905F11E0278
:109B10000391C6F3801604F118010746C3F38013BE
:109B200000920291002201460196204619F06CF83D
:109B300038461AF0EDF81AF02DF9002840F08A8125
:109B4000214681481AF014F8626892F8203043F0F8
:109B5000010382F82030A37D43F08003A37510F049
:109B6000FDFA172303714FF6FF730646C3802422C4
:109B700039462D7F1C3023F0B9FE337FB460C5F326
:109B8000401565F3451333771AF00CFB0021306163
:109B90000120059C1AF0CCF8241A746110F0DEFA4A
:109BA0003146F060306810F0EFFA07B0BDE8F040E1
:109BB00010F0FABAFFB2002F3FF43BAF61E7E17D4E
:109BC000C3F3801001F0010188420CD1062205F197
:109BD0001E0104F1080023F079FE2B7F03F00F0231
:109BE00000283FF461AF002A40F0B8806A7F252A40
:109BF00013463FF61EAFA17D01F02101202936D08A
:109C00000027002B3FF415AF63682BB12B7F03F0C7
:109C10000F03072B7FF40DAF032010F07DFA0546EC
:109C200000283FF406AF10F099FA4FF6FF73EB806F
:109C300005232B71002E7BD17F206B7E287667F366
:109C4000000328686B76294610F09EFA10F0ACFAF3
:109C5000EFE63E4A3E493F4840F2D22321F02DFF35
:109C6000404080F311884FF0030002DF03E767688C
:109C7000002F40F0D78096201AF0D4F938461AF019
:109C8000C5F8032010F048FA074600283FF4D1AE8B
:109C900010F064FA4FF6FF73FB8005233B71002E32
:109CA00040F0CE807F237A7E3B766FF300027A7697
:109CB0003946386810F068FA10F076FA1AF0A2F80F
:109CC0000378032262F3030303702B7F0278C3F34C
:109CD000801363F3C7120C2302704370A37DD2B2CA
:109CE000C3F3801363F38612064604F1180100F8EB
:109CF000022B062223F0FAFD062205F11E0106F1D1
:109D0000080023F0F3FD30461AF002F81AF042F88A
:109D1000002840F0B0801AF091FAA37D0E4843F07D
:109D200001032146A37507B0BDE8F04019F020BF3C
:109D30001AF02EF9C0B280E700CA9A3B000000007A
:109D4000192904008D49FD1AE12A0400B4640500B4
:109D500068640500205A05002D290400062A3FF4F6
:109D600045AF4521D140C90700F1A380012A18D190
:109D70006A7F0C2A7FF45DAEA27DC2F38011B1EB45
:109D8000D31F4FEAD31750D0C2F3C102012A7FF686
:109D900050AE2FB195F8293003F0C003402B67D0A7
:109DA0002B7F03F00F03042B7FF443AE6B7F252B37
:109DB0003FF63FAEA37DDB077FF53BAE1AF022F8FE
:109DC0002B7F0278C3F38013B3EBD21F7FF431AE45
:109DD0000622083005F11E0123F078FD0746002811
:109DE0007FF427AE6B7F0CE7012AB7D16A7F0C2A7C
:109DF0007FF41FAEA27DC2F38011B1EBD31F4FEAF7
:109E0000D31746D0C2F3C102012AB5D937B195F8AC
:109E1000293003F0C003402B3FF44CAE2B7F03F0FE
:109E20000F02E0E613460027EBE6062205F12401C7
:109E300004F1180023F04AFD30B96B7F0746E0E6D5
:109E40001AF0A6F8C3B22EE7A37DC3F3C103012B1A
:109E5000A6D99EE7194A1A491A4840F2AC4321F0A4
:109E60002CFE404080F311884FF0030002DF67E6CC
:109E70006B7F0127C5E6114A1149124840F2315360
:109E800021F01BFE404080F311884FF0030002DFF9
:109E900041E7062205F1240104F1180023F016FD24
:109EA00000283FF407AEA37DC3F3C103012BADD857
:109EB000B4E76B7F252B7FF6A3AEBAE5B46405004B
:109EC00070640500205A05002DE9F04F8FB0DFF8CF
:109ED000D8800B900DF137010DF1360010F012F81B
:109EE000324F9DF836A09DF837B00DF0CDFED8F872
:109EF00000400A90A4FB075429A3D3E900230026BD
:109F000021462846FDF77AFB0B9B0693CDE90766B1
:109F1000274B05938146D8F8040021A3D3E90023F9
:109F2000A0FB0701FDF76AFB224B29F07F47A7FB47
:109F3000033120F07F400722CDE9036002FB0711C7
:109F4000E81A64EB01014FF47A720023FDF756FB27
:109F50000A9B0096CDE901705A46032150460DF048
:109F600067FD30F0020416D1134A144800231FF095
:109F70006BFD68B19DF837209DF8360000942346AC
:109F800003210DF0E1FD6FF073000FB0BDE8F08F1D
:109F9000D8F80C00F9E76FF08B00F6E7AFF300801C
:109FA0008D49FD1A07000000306D002000CA9A3B61
:109FB000096904008D49FD1A447B0B00186D0020CF
:109FC00038B50F4D04460DF05FFEA9680DF05EFE3A
:109FD0006968B0FBF4F404440A4807A3D3E90023FA
:109FE000A1FB0001FDF70AFB20F07F40844294BFF3
:109FF0000020012038BD00BF8D49FD1A0700000078
:10A00000306D002000CA9A3B01481FF095BE00BF8A
:10A010007802002007B529F041F84FF47A72A0FBCE
:10A02000020302FB0131C00B074A40EA41401060C5
:10A0300000234FF400420548CDE9002320F05AFCEC
:10A04000002003B05DF804FBD03A0020101300207C
:10A0500008B5044B187800F0AFF9BDE8084020F0CF
:10A0600062BD00BF60710020044B1A78824202D0AA
:10A070001870FFF7EDBF0020704700BF607100202F
:10A0800008B529F00BF84FF47A72A0FB020302FB2B
:10A090000131C00B044A40EA41401060BDE808406D
:10A0A0000020FFF7E1BF00BFD03A00201FB528F025
:10A0B000F5FF4FF47A72A0FB020302FB0131134A51
:10A0C000C30B126843EA41439B1A114A934218DDBD
:10A0D00002F0C0F8044628B1012004B0BDE81040E9
:10A0E000FFF7C2BF0220FFF7BFFF062301A92046EA
:10A0F000CDE9014403948DF8043004F0BDFB04B0B5
:10A1000010BD47F230529342F9DDE5E7D03A002026
:10A11000A0BB0D0030B5194C8DB00022002303A95F
:10A1200020461FF027FB08B10DB030BDDDE9041556
:10A13000039800F057F80028EFDBFF238DF8183064
:10A14000B5FA85F35B0907908DF8203028F0A6FF5B
:10A150004FF47A72A0FB020302FB0131C00B40EA0C
:10A160004140C90B8DE8030006ABCDE90A010FCBD6
:10A1700000F02EF920F0D7FCCFE700BFF414002048
:10A180001FB583F00103CDE90112039300220023E0
:10A1900001A904481FF098FA03481FF0CDFD05B04F
:10A1A0005DF804FBF4140020D43A002010B50446F6
:10A1B00078B10949094828F07FFDA36808491B6860
:10A1C00020469847A3689B680BB12046984700201B
:10A1D00010BD6FF01500FBE715A10200D43A002076
:10A1E00081A102000C2303FB00112C2905D8044B8C
:10A1F00053F8210008B1013870476FF0150070471F
:10A200001C3C05002DE9F041134B144EA3EB06084E
:10A2100007460D4606EBC106C8F3C708A84506DC8D
:10A220000024384629F0E5F82046BDE8F081326880
:10A230003B689A420BD13D71736838461B6898475A
:10A2400001280446ECD0022804D00028E9D10135C9
:10A250000836E3E70024E7E714730500CC72050035
:10A2600000B58BB0064B074A2821684605F0DAF89E
:10A2700005490122684604F06FF80BB05DF804FB55
:10A28000746905007E690500617100202DE9F041C7
:10A29000466807693179F38804463068D0F810E0E1
:10A2A000D0F80880DEF80050DA0754BF43F4B0134A
:10A2B00083F4D0134FF0010C23F480120CFA01FC4C
:10A2C000DB074CBF45EA0C0525EA0C05CEF800502B
:10A2D000D8F80030984760BB04F092F9164804F0B3
:10A2E000CBF8054610BB1549154828F029FD15483F
:10A2F00004F06CF87B785BB901233B7000220023EB
:10A300000F481FF081FDA3681B680BB120469847DA
:10A31000318959B140F2E7304FF47A72002300EBF3
:10A32000C1300021FDF76AF920F074F82846BDE835
:10A33000F0816FF00405F9E79802002061A20200A5
:10A34000901700209169050008B54FF4F012002322
:10A3500002481FF08DFD00EAE07008BD9017002054
:10A36000F7B50C461646114901AA1F4621F0F0FE2A
:10A37000B0B1019BA3B9012C15D10D4D2246294640
:10A380003846B047002806DB2B780A486C7023B1AA
:10A3900020F0E4FB002003B0F0BD20F0F1FBF9E772
:10A3A0006FF00100F7E76FF01500F4E7746905003E
:10A3B000617100207C36050010B504460C2029F0A0
:10A3C0001FF8024A0260047210BD00BFE83C05009D
:10A3D00084B070B504AC84E80F00202029F010F898
:10A3E0000446084B44F8083B04AD06460FCD0FC4A5
:10A3F00095E8030084E803003046BDE8704004B0EF
:10A40000704700BFEC3C05000268034B9A420CBF4A
:10A4100008300020704700BFEC3C050010B5044632
:10A420000C2028F0EDFF024A0260047210BD00BF4C
:10A43000F43C050082B038B504A981E80C0005465B
:10A4400011481EF025FF0446A0B16B68012B0CD00B
:10A45000022B05D0A3B9BDE8384002B020F0C4BB40
:10A4600020F0C9FB00282046F5DCBDE8384002B0EA
:10A4700020F0B3BB6FF00400BDE8384002B0704775
:10A480006FF08500F8E700BF7469050082B010B571
:10A4900002A981E80C0004460B481EF0F9FE78B1D1
:10A4A0006368022B04D00020BDE8104002B0704762
:10A4B00020F0A1FB0028CCBF002001206060F2E763
:10A4C0006FF00400F0E700BF746905000D4A52F810
:10A4D0002030013342F820300B4A012311788340A9
:10A4E0000B430A490978DBB2137023EA01030849D8
:10A4F000084A097850780B43181A537018BF012086
:10A50000704700BFE43A00206571002063710020AD
:10A51000647100208512002010B5114A52F82030D5
:10A52000002B19DD013B42F820300E4A2BB913787D
:10A530000121814023EA010313700B480B4B04787F
:10A5400010780B4A5978127820EA040010435870AA
:10A55000401A18BF012010BD6FF01500FBE700BFC7
:10A56000E43A00206571002063710020851200200C
:10A5700064710020044A012312788340D8B213404A
:10A580001B1A5842584170476571002010B5084B9E
:10A59000084A1870084B51781C78084B1B7823EA3E
:10A5A000040318435070401A18BF012010BD00BFAB
:10A5B0006471002085120020637100206571002005
:10A5C000074B00221A70074B074A1978074B50783F
:10A5D0001B7823EA0103181A537018BF0120704733
:10A5E00064710020637100208512002065710020D5
:10A5F000A0F1E003072B03D82030C0B2FFF766BFFD
:10A60000064B062213F8011F19B1013AFAD10020B6
:10A61000704718700028F8D0F9E700BF87120020B3
:10A62000A0F1E003072B10B404D8203010BCC0B256
:10A63000FFF772BF0023064A194612F8014F013393
:10A64000A04208BF1170062BF7D1002010BC704744
:10A6500087120020A0F1E003072B03D82030C0B2FE
:10A66000FFF788BF064A002312F8011F884204D072
:10A670000133062BF8D1002070470120704700BF3E
:10A680008712002002480822002123F03AB900BFB7
:10A690008612002010B50849002301EB4302B2F8EE
:10A6A000014024B10133062BF7D1002010BDA2F8E0
:10A6B00001000028F6D0F8E77812002030B500231A
:10A6C000074C194604EB43020133B2F801508542AE
:10A6D00004BF51709170062BF4D1002030BD00BF33
:10A6E0007812002002480C22002123F00AB900BF92
:10A6F00079120020074A002302EB4301B1F8011050
:10A70000814204D00133062BF6D10020704701208E
:10A71000704700BF78120020004870478512002063
:10A720000048704778120020164B2DE9F04F05467F
:10A73000002002469E46804600260027D3F800B03F
:10A74000BBF1000F19D0D3E902A9554571EB0904FB
:10A7500015DA90420BD04FEA001C0EEB0014C4E94E
:10A7600002A94EF80CB0C3E90267C3F800800130BB
:10A770000132052A03F11003E0D1BDE8F08FC3F8E0
:10A780000080F5E7F817002070B50C4D55F8040B64
:10A79000002680B145F8046C20F0C8F9012455F872
:10A7A000040B30B145F8046C013420F0BCF9042CE2
:10A7B000F5D1204670BD0446FBE700BFA43E002053
:10A7C0002DE9F041154E00214FF0140E0369994216
:10A7D00022DA50F82130292B1EDC0EFB03680246DA
:10A7E000002458F8045B35B903EB8303234401319B
:10A7F00046F82320EAE72F69D2F810C0674508DB46
:10A8000004D1EF6AD2F82CC0674502DB48F8042C6B
:10A810002A460134052CE4D1BDE8F081583B0020E4
:10A8200008B51849184828F08BFA1848FFF7C8FFF0
:10A830001748FFF7C5FF1748FFF7C2FF1648FFF795
:10A84000BFFF1648FFF7BCFF1548FFF7B9FF1548D3
:10A85000FFF7B6FF1448FFF7B3FF1448FFF7B0FF48
:10A860001348FFF7ADFF1348FFF7AAFF1248FFF7A1
:10A87000A7FF1248FFF7A4FF1148FFF7A1FF002030
:10A8800008BD00BFD5AD0200C81700208805002014
:10A890005005002018050020E0040020A804002036
:10A8A000700400203804002000040020C8030020A9
:10A8B000900300205803002020030020E80200201D
:10A8C000B00200202DE9F04140488EB028F046FA51
:10A8D00000233F4A194652F8230038B93D4F3E68DD
:10A8E00056B90EB0BDE8F041FFF74EBF42F8231055
:10A8F0000433142BEFD1F1E737490024142000FB77
:10A9000004F303EB010ECA58002A47D13348CE5056
:10A910000368334D01330360336928469046934200
:10A9200044DC9D0000EB83024FF0000C6842042BD6
:10A9300044D1142303FB041106AC4868FFF764FDFF
:10A94000002305690293D6F82CE0264B4FEAE57CFC
:10A95000C3E9005CCDE903E5CDF814C002AB0FCB31
:10A9600006F1140884E80F00CDE907E5CDF824C00E
:10A9700094E80F000AAD85E80F0070691EF088FCAE
:10A9800088B183689C6874B10EAB13E903008DE84D
:10A990000300404695E80C00A04704E00134042C75
:10A9A000ADD1FFF7F1FE00233B609AE7D5F800C078
:10A9B0004EF804CF45F8048B0132B0E71568013337
:10A9C000002DB6D0155042F804CBB0E7C8170020D0
:10A9D000F8170020A03E0020083B0020043B002088
:10A9E000A43E002000000020F8B50024284B6FF0A2
:10A9F00000452246196869B1D3E90201A84271EB0A
:10AA0000040602F10102BCBF05460C46052A03F10B
:10AA10001003EFD11F4ED6E90023A34208BFAA427C
:10AA200032D028F03BFB4FF47A77A0FB070307FBFB
:10AA30000131C30B43EA4143AB424FEAD131A1415B
:10AA400023DA28F02BFBA0FB070307FB0131C00B27
:10AA500040EA4140281A64EBD131C90341EA504130
:10AA600040F2E733C003C01841F100014FF47A729D
:10AA70000023FCF7C3FD02460B4607481FF0C4F94C
:10AA80000028A8BFC6E90054F8BD00200146E4E74D
:10AA9000F8170020C0170020C81700202DE9F04F3C
:10AAA00095B00646FFF7B0FC002800F06D813046F7
:10AAB000FFF7AAFC824680B3047A002C00F0BF8026
:10AAC000AA4DDFF8AC922C68D0E90478002C46D16E
:10AAD000D0F804A020F0F7F9A64B1A685B6804933D
:10AAE00014230392844603FB0A9221466FF0320E30
:10AAF00052F8043B83B193F93400013013D0D3F8FA
:10AB0000309003F13300AEEB030B0BEB000ACA45A8
:10AB100005DB01310529EBD1DCBB0025CCE010F9C8
:10AB200001AFE245F1D1586ADDF80C90DDF810A0D4
:10AB300010EB09094AEBE0704F4578EB0000E8DBC9
:10AB40004FEA041905EB041045F809301B6A13EBB2
:10AB5000070948EBE373C0E902930134D9E73846AB
:10AB60004146FFF7E1FDDAF8043000242746A44609
:10AB700003EB830E4FEA0C1205EB0C13A9580EEBF6
:10AB8000070259F8222001B1F2B923460022042B12
:10AB90003DDDFFF729FF784B2968184600221D4646
:10ABA00050F8047BBFB30132042AF9D1002544B127
:10ABB000012C08694FF000023CD182422FDB6F4B21
:10ABC0001960FFF77FFE77E0D1F82C80D06A8045CE
:10ABD0000ED10FCB013705EB0418052F88E80F00C5
:10ABE00004F101040CF1010CCFD0BCF1050F05E01C
:10ABF00009691369994203DD0137052FBAD1C4E70A
:10AC000002DA0CF1010CF0E78045FADDF4E71901F6
:10AC100001336A50BBE745F822600225C7E753F8C5
:10AC2000044B002C48D00132C7E753F8044B002CEA
:10AC300042D001328242F8DB504B19603CE0FFF712
:10AC400041FE4F4DDAF8043006934E4FDAF81030DB
:10AC500005900393AA463B689C4236DB059B012B7B
:10AC60007FF75BAF30461FF05EFF022524E059F806
:10AC7000040F28B30792FFF7C7FB069B4068079AAB
:10AC800083421FD1D9F8000028F0B3FB0023C9F894
:10AC9000003001220BF1010BD5F800C0DCF81000E8
:10ACA0008345E4DB1435002A5ED09CF82830A3B13C
:10ACB000B8F1000F13D10125284615B0BDE8F08F7B
:10ACC0000490E7E74FF00008E4E700224FF00108A6
:10ACD000A9469346CDF81080DEE7049B6BB30023B2
:10ACE0000893DCF82CB0039BCDE909B34FEAE37E6F
:10ACF000CDF82CE008AB0FCB0CAD85E80F000CF1C4
:10AD00001406039BCDF834B0CDE90E3E95E80F0054
:10AD10000DF1400989E80F00DCF814001EF0B8FAC4
:10AD200058B18368DD6845B114AB13E903008DE8C1
:10AD30000300304699E80C00A847B8F1000FBAD0DC
:10AD4000396801398C42396006D0142202FB01A116
:10AD500002FB04A022F0CAFD38681422002102FB85
:10AD600000A022F0CEFDA6E7013474E7F81700201A
:10AD7000583B002008000020A43E0020A03E0020F8
:10AD8000083B0020043B0020304600F099FA0028E0
:10AD90003FF4C3AE304600F093FA837A002B3FF4C1
:10ADA000BCAE4368E03B072B03D80378072B3FF486
:10ADB000B4AE064BD0E90412D3E9000388429341B4
:10ADC000BCBF034BC3E90012A7E600BF0000002090
:10ADD0000800002038B5114CD4E9003213431CD0D0
:10ADE00028F05CF903460D46D4E900014FF47A746B
:10ADF000A3FB043204FB0522DB0B43EA42438342FC
:10AE00004FEAD2328A4108DBFFF78EFC08B9FFF720
:10AE100059FDBDE83840FFF7E7BD38BDC017002039
:10AE200038B5154C012323701448002200231EF06E
:10AE30000BFE002805DB0025237823B90F481EF000
:10AE4000DDFD002038BD257000F052F900F018003B
:10AE500018284FF0050007D100F050F90028EBD179
:10AE6000052020F03CF8E7E700F048F90028E3D09F
:10AE7000052020F037F8DFE7667100205415002028
:10AE800008B5FFF749FC094A127822B1012A07D018
:10AE90006FF0850008BDBDE80840092101F010BA37
:10AEA000BDE80840013000F0A3BD00BFB43E002063
:10AEB00008B5FFF735FC094A127822B1012A07D0FC
:10AEC0006FF0850008BDBDE808400D2101F0F8B91C
:10AED000BDE80840013000F0B1BD00BFB43E002025
:10AEE00002490348012203F037BA00BF677100200E
:10AEF0004D6A050070B500250560064600F034FB7C
:10AF0000044680B101F0A6F9022806D000F062FCE8
:10AF1000012370603370304670BD064B1B78012BE7
:10AF2000F4D02846F5E701F095F90228EED1234642
:10AF30002046EEE76771002073B503F061FB0C4813
:10AF400003F09AFA044678B90A490B480B4E27F0E9
:10AF5000F7FE6D460A4803F039FA2846FFF7CAFFA4
:10AF600095E8030086E80300204602B070BD00BFEC
:10AF7000C0050020E1AE020048180020B43E0020C9
:10AF8000616A050082B00DF1080C0CE90300194656
:10AF90009DF8003010461BB1012B05D0054A00E09A
:10AFA000054A02B004F03EBA019B044A02B004F024
:10AFB00039BA00BF766A05006B6A05006F6A050042
:10AFC00030B589B001AD134C2846FFF793FF94E8E4
:10AFD0000C0095E803001FF0F7FEC0B9FFF752FB25
:10AFE000FFF780FBFFF74CFFFFF762FF95E80300D8
:10AFF0000A2305AA84E80300FFF7C4FF94E80300CE
:10B0000003AB83E8030000F025F81FF08CFD09B0C6
:10B0100030BD00BFB43E002070B50C4615460B494C
:10B0200000221E4621F094F808B9002070BD012CC2
:10B0300008D1074922463046A8470028F6DDFFF729
:10B04000BFFFF2E76FF01500F0E700BF576A050099
:10B050006771002013B56C4684E80300102028F0C7
:10B06000CFF90246054942F8081B034694E803005D
:10B0700082E80300184602B010BD00BFB43D0500D1
:10B0800009281FB52FD828BB09B3184B1A6801230C
:10B0900083401343154C9A42236018D08DF800006A
:10B0A0008DF8011027F0FAFF4FF47A72A0FB02032B
:10B0B00002FB0131C00B40EA4140C90BCDE902015E
:10B0C00004AB13E90F0000F0C9F81FF02CFD0020BD
:10B0D00004B010BD054B1A680029D8D10123834064
:10B0E00022EA0303D6E76FF01500F1E7643F002082
:10B0F000014B1868704700BF643F0020014B19687E
:10B100001FF0D7BE643F00202DE9F04F15464FF4E5
:10B11000FC721F464A430C2303FB0522394B1344A0
:10B1200082460E4693E807008DB005AC84E8070020
:10B13000DDE916891EF0ACF8834600285DD0CDE924
:10B140000865CDE90A8905981EF0A2F883685B6856
:10B150009C4653B10CAB13E90300DDE908238DE8ED
:10B16000030020466146884758BBDBF808301B784F
:10B17000012B13D0022B27D0002B40D1CDE908653D
:10B18000CDE90A890CAB029713E903008DE80300AF
:10B190002B46324620461FF0B7FE12E0CDE9086587
:10B1A000CDE90A8902970AAA92E803008DE8030014
:10B1B00008ABBAF1FF0F0CCBECD02146504620F083
:10B1C00072F80DB0BDE8F08FCDE90865CDE90A89C8
:10B1D00002970AAE96E803008DE8030008AD95E8F3
:10B1E0000C002146002020F05EF8029796E803004C
:10B1F0008DE8030095E80C00CCE70120E1E76FF053
:10B200008500DEE7C03D05002DE9F34EDDE90AAB20
:10B21000104D81460F4614461AB10F4B1B6845F876
:10B220002130092655F82710F0B21FF042FE30B940
:10B23000013EF7D26FF0850002B0BDE8F08ECDE997
:10B2400000AB23463A4631464846FFF75DFF0028EB
:10B25000F2DDEDE7BC3E0020643F00207FB56C4688
:10B2600084E80F00182028F0CBF80546054B45F878
:10B27000083B064694E80F0085E80F00304604B00E
:10B2800070BD00BF7051050084B070B504AC84E897
:10B290000F00202028F0B4F80446084B44F8083B7F
:10B2A00004AD06460FCD0FC495E8030084E8030003
:10B2B0003046BDE8704004B0704700BF78510500CB
:10B2C0000268034B9A420CBF08300020704700BF51
:10B2D0007851050013B56C4684E80300102028F06F
:10B2E0008FF80246054942F8081B034694E803001C
:10B2F00082E80300184602B010BD00BF7C51050073
:10B3000007B5094B1A78094B8DF80020162102FB6E
:10B310000133019302AB13E90300FFF7DBFF03B036
:10B320005DF804EB1FF0FFBB6F710020707100200F
:10B3300002490348012203F00FB800BF6F710020DB
:10B340000A6B050070B503788AB004460E4607AD57
:10B35000032B20D8DFE803F002191B1D11492846F2
:10B3600022F083FA059563780493A3780393E37836
:10B3700002932379019363790093A3790A4A1E21EA
:10B38000304620F0A7F80AB070BD0849E7E7084941
:10B39000E5E70849E3E7084A0A21284620F09AF839
:10B3A000E0E700BF1D6B0500466B0500246B050040
:10B3B0002B6B0500356B05003F6B05002DE9F04157
:10B3C0008AB00D46164628496A4604461F4620F0B4
:10B3D000BFFEF8B10098E8B10A2201A922F03DF9B8
:10B3E000019B1B7803BB162D1ED1C4B2042C1BD8A5
:10B3F000DFF878806C432A4608EB04013846B047F2
:10B40000002813DD04F10F0002A94044FFF79AFF62
:10B4100000200BE016496A46204620F099FE78B1DC
:10B42000009B6BB9012D04D06FF015000AB0BDE888
:10B43000F08110492A463846B04700EAE070F5E747
:10B440000D496A46204620F083FE0028E0D000988F
:10B450000028DDD0072DE7D122F0DCF80028D7D175
:10B4600006492A46E7E700BF696B050070710020B6
:10B470000E6B05006F710020726B05006871002073
:10B4800010B592B0044623F0B0FA01A9FFF75AFFB5
:10B4900009A9204606F002FF9DF82530012B14D1A2
:10B4A0000B481EF049FC204623F09FFA094B1978FF
:10B4B0000F22162313FB012307490722194422F008
:10B4C00005FA10B905481EF037FC12B010BD00BFD8
:10B4D0003C0600206F710020707100204C06002097
:10B4E00008B5084B084819780F22162313FB0123CF
:10B4F00018440649072222F0E9F9B0FA80F0400921
:10B5000008BD00BF6F710020707100208D6E0500B6
:10B510002DE9F04104468CB00D464FF016080F4F50
:10B5200004A9284614FB08F6FFF70CFF06F10F00EC
:10B5300029460722384422F0D9F9224608496846AC
:10B5400003F08AFF4246B919684602F005FF054834
:10B550001EF0F2FB0CB0BDE8F08100BF707100205E
:10B56000876B05004C06002010B5124B12491A7863
:10B5700016240F2314FB0234104B1C448AB00722FC
:10B58000204622F0A3F910B900200AB010BD2146D0
:10B59000002006F031FE04460028F5D001A906F08F
:10B5A0007DFE204623F048F99DF82400831E584272
:10B5B0005841EAE76F7100208D6E05007071002020
:10B5C000F0B58DB0FFF78CFF98B9FFF7CDFF80F095
:10B5D00001035B00DBB2214D2A7803EB0213112B30
:10B5E00009DC022B2DD0102B23D0002420460DB0D7
:10B5F000F0BD0223EFE7202B1BD0122BF5D105F075
:10B6000053FE00232B7004460028EFD1144F0FCFB8
:10B6100002AE0FC63B6813493360042200942346F0
:10B6200002A805F00FFE04460028DFD102232B708C
:10B63000DBE705F039FE00232B7004460028D4D048
:10B64000D4E7074E0FCE07AC0FC433682360002346
:10B6500004490093042207A8E3E700BFDE7100203D
:10B66000103B05009851050030B593B0054623F016
:10B67000BCF901A90446FFF765FE09A9284606F0B2
:10B680000DFE9DF82530012B05D1FFF729FF21463E
:10B6900018B904F027FF13B030BD034B1878FFF73B
:10B6A00037FFFFF78DFFF6E76F71002030B593B0DD
:10B6B0000D4609A9044606F0F1FD9DF82530012B41
:10B6C0000BD1204623F091F901A9FFF73BFE114B66
:10B6D00000221A701DB1FFF773FF13B030BD0221B5
:10B6E000204623F030F9FFF76BFF204623F07DF969
:10B6F000094B19780F22162313FB01230749072250
:10B70000194422F0E3F80028E7D105481EF014FBA5
:10B71000E3E700BFDE7100206F7100207071002030
:10B720004C06002010B5002005F01EF80446D8B9DC
:10B7300002F066FF0D4802F09FFE0446A0B90C49D6
:10B740000C4827F0FDFA0C4802F040FE0B4802F0CE
:10B750003DFE0B4806F02CFD0A4807F029F80A4880
:10B7600007F040F8FFF72CFF204610BD240600200C
:10B7700031B3020078180020976B05009B6B050021
:10B7800004060020E8050020D8050020F8B50E4D7D
:10B790000E4E28780E4916240F2714FB007007223E
:10B7A000304422F093F850B12B7814FB03713144EC
:10B7B000002004F097FE06492878FFF7A9FEFFF75E
:10B7C000FFFE0020F8BD00BF6F71002070710020E7
:10B7D0008D6E0500014B1878704700BF6F71002017
:10B7E000042808B510D80A4B1A7882420AD018707B
:10B7F0004FF4F012002307481EF03AFBFFF7E0FE7B
:10B80000FFF77EFD002008BD6FF02100FBE700BFC1
:10B810006F71002078180020054B1878052301303F
:10B82000B0FBF3F303EB8303C01AC0B2FFF7D8BF3A
:10B830006F710020054B187805230430B0FBF3F33B
:10B8400003EB8303C01AC0B2FFF7CABF6F710020B9
:10B85000044B054819780F22162313FB01231844C3
:10B86000704700BF6F7100207071002030B5014635
:10B8700091B004460722144822F028F8E8B1124893
:10B8800008A9FFF75FFD11490F48072222F01EF8B3
:10B890000546A8B969462046FFF754FD0722214610
:10B8A000094822F023F80A492A4608A803F0D4FDE3
:10B8B0000722214608A802F04FFD002011B030BD3C
:10B8C0006FF00B00FAE700BF687100208D6E050075
:10B8D0009E6B05001FB54D240294044C0194BDF8E5
:10B8E0001840009424F053FB04B010BDD76B050042
:10B8F00007B5064B00930649064805234FF44072EE
:10B900001EF020FA002003B05DF804FBB8510500DA
:10B91000D0730020A818002010B5FFF799FF064942
:10B920000722044621F0D2FF28B121460020BDE8BD
:10B93000104006F061BC10BD8D6E0500F0B5134ED1
:10B94000134F89B000220023694630461DF012FFD4
:10B95000054608B109B0F0BDFFF7DEFF0446002838
:10B96000F8D01822294602A821F0CBFF08230DEBBE
:10B97000030120460397CDF810D0ADF8143008F03D
:10B9800013FE204622F058FFDCE700BFC41400205D
:10B99000245205002DE9F041134FDFF850808AB0A2
:10B9A00001AE00220023314638461DF0E3FE054675
:10B9B00010B10AB0BDE8F081FFF7AEFF04460028E1
:10B9C000F7D01822294604A821F09BFF0C2304A9D4
:10B9D0002046CDE90586ADF81C3008F0E5FD20468F
:10B9E00022F02AFFDDE700BF9414002088520500F2
:10B9F00037B5054640F6CD42014600230C481DF000
:10BA000063FE044678B110F10B0F09D10022002328
:10BA1000694607481DF0AEFE2846FFF7E9FF0446D9
:10BA2000204603B030BD0349034827F072F9F7E719
:10BA3000C41400206C060020A818002030B505466C
:10BA400085B040F6CD42014600230D481DF03CFE76
:10BA5000044678B110F10B0F09D10022002301A98F
:10BA600007481DF087FE2846FFF7E8FF04462046FA
:10BA700005B030BD0349044827F04BF9F7E700BF94
:10BA8000941400205C060020A818002010B504467D
:10BA90000C2027F0B5FC024A0260047210BD00BF02
:10BAA0000453050008B500F0A3FFBDE808400149B4
:10BAB00027F02FB93C07002007B50A4826F081FE81
:10BAC00068B14FF4F0120023CDE9002306480022AC
:10BAD00000231EF00FFF002003B05DF804FB6FF0A1
:10BAE0001200F9E7EC3605004813002037B50F4C7B
:10BAF000A5682C21EB6820469847A0B92C212B691A
:10BB00006A462046984770B9094C009823788342CA
:10BB100009D0C0B2207001F01FFB20B92078FFF7D8
:10BB2000B5FF1FF000F803B030BD00BFEC360500D4
:10BB3000E071002030B50C4B187887B090B90B4AF3
:10BB400052686AB90A4D01221A700FCD01AC0FC4B8
:10BB50002B680849236001A805F0F0FD00EAE070B9
:10BB600007B030BD0020FBE7E1710020683F0020F6
:10BB7000243B0500ADC0020007B500230749009330
:10BB80004FF40072052306481EF0DCF8054806F065
:10BB90000FFB03B05DF804EBFFF7CCBFD0760020BD
:10BBA000481900205C07002084B010B588B00AACAA
:10BBB00084E80F001148214640F6CD4200231DF0D5
:10BBC00083FD0446A8B110F10B0F0CD10022002315
:10BBD00003A90A481DF0CEFD0E9B00930AAB0FCBC4
:10BBE000FFF7E2FF0446204608B0BDE8104004B06D
:10BBF00070470349034827F08CF8F4E72415002028
:10BC00004C0700204819002070B503788AB004461C
:10BC10000E4607AD032B20D8DFE803F002191B1DE9
:10BC20001149284621F021FE059563780493A378F5
:10BC30000393E37802932379019363790093A379C3
:10BC40000A4A1E2130461FF045FC0AB070BD084963
:10BC5000E7E70849E5E70849E3E7084A0A212846F3
:10BC60001FF038FCE0E700BF1D6B0500466B0500C8
:10BC7000246B05002B6B0500356B05003F6B050041
:10BC800030B50C4D89B002AC002200232146284675
:10BC90001DF070FD08B109B030BD08AB13E9030019
:10BCA0008DE8030094E80F00FEF792FB1EF03BFFC7
:10BCB000EAE700BF6414002070B5114E114C8AB041
:10BCC0000022002305A930461DF054FD08B10AB03A
:10BCD00070BD9DF81430A4225343E518E35C022B99
:10BCE000EED1B5F880100029EAD0CDE9010001239A
:10BCF0000093686813230DF1150224F07CFCDFE744
:10BD000024150020683F0020034B5B68834214BF6A
:10BD10006FF0150000207047683F002008B5FFF75E
:10BD2000F3FF031EA3BF0348A42202FB030000206D
:10BD300008BD00BF683F00202DE9F041134686B0E2
:10BD400007460D4639B91822184621F0DAFD0020C1
:10BD500006B0BDE8F081FFF7E1FF04460028F6D009
:10BD6000124BD0F808C001AA03F1100896461868D3
:10BD70005968164603C6083343453246F7D11B7847
:10BD800033707146604621F072FE08B10120DFE792
:10BD9000074BA060E3602B8A0133238203232376C1
:10BDA00004F10801384608F001FDD0E7383B0500F2
:10BDB000B5BD02002DE9F04106468AB00D460029C6
:10BDC00061D0C968002960D0FFF7A8FF04460028A9
:10BDD00037D02F4B0F686A4603F110089646186853
:10BDE00059689446ACE80300083343456246F6D1EF
:10BDF0001B788CF800307146384621F038FE18BBAD
:10BE0000A0602B8A023323820323237604F1680384
:10BE10006363E38A2386284624F0D0F81D4B23620F
:10BE20000123A085238704F12001304608F0C8FED5
:10BE3000B4F880301BB1A38D003B18BF012383F001
:10BE400001000AB0BDE8F081134B05AA03F1100E02
:10BE5000944618685968164603C608337345324637
:10BE6000F7D11B7833706146384621F000FE002878
:10BE7000DED1A0602B8A02332382284624F09EF86C
:10BE8000A4F88000D4E70846DBE70846D9E700BFFE
:10BE9000493B05009DBE02005A3B05002DE9F047D5
:10BEA00086B007461446FFF739FF002851D024B961
:10BEB0008C81204606B0BDE8F087631E00F1810248
:10BEC0000F3413F8011F12F8015F694011741978DB
:10BED0001170A342F5D1DFF88090DFF880A000F167
:10BEE000920400264FF0010800252378EB40DB0781
:10BEF00027D514F8101C08FA05F31942384614BF68
:10BF000001210021FFF700FFAA198DF8000001921E
:10BF10008DF8081027F0C2F84FF47A72A0FB0203E4
:10BF200002FB0131C00B40EA4140C90BCDE90401DD
:10BF300000220023694648461DF0C6FB50461DF00E
:10BF4000FBFE0135082DD0D10836802E04F1010406
:10BF5000CAD10120AEE700BF641400207C07002096
:10BF60002DE9F047044686B000284AD1264D2B78AB
:10BF7000002B46D0686810B122F05EFC6C60002493
:10BF8000224FDFF88C90DFF88CA02C70A0460026A2
:10BF90003B78F340DB071CD533198DF80080019303
:10BFA0008DF8088027F07AF84FF47A72A0FB02032C
:10BFB00002FB0131C00B40EA4140C90BCDE904014D
:10BFC00000220023694648461DF07EFB50461DF0C6
:10BFD000B3FE0136082EDBD10834802C07F10107AF
:10BFE000D5D100220C49134601F8013F0132102A35
:10BFF0000B74F9D1AB85A5F88030002006B0BDE800
:10C00000F0876FF01500F9E7683F0020EA3F002055
:10C01000641400207C070020E93F002070B5FFF782
:10C0200025FC041E0ADBA425064E6543735D2BB96F
:10C03000FFF796FF01237355204670BD6FF00B0488
:10C04000FAE700BF683F002070B586B00646FFF7EC
:10C05000E5FF041E20DB124B00221A7005F0EEFBF8
:10C06000002819DB0F4B986CD96C6A4603C2503319
:10C0700015460FCB85E80F000B4BA42202FB0433BF
:10C0800029466A46304606F06BF9002804DA204655
:10C09000FFF766FFFFF74EFD002006B070BD00BF42
:10C0A000E1710020243B05006C3F002070B588B092
:10C0B0001546694604461E46FFF7A6FD35B90649F2
:10C0C0002246304622F064F808B070BD012DFBD145
:10C0D0002046FFF7B9FFF7E7DDC00200F0B50378AF
:10C0E000063B012BA5B005460E4602D9012025B01E
:10C0F000F0BD447814F00F04F8D16B789C42F5DA67
:10C1000069681022214401A821F0DFFC70B31A4BAA
:10C1100006AA03F110079646186859689446ACE8D9
:10C1200003000833BB426246F6D11B788CF800301E
:10C13000714601A821F09BFCD0B1252210A901A8CD
:10C1400003F06AFC0BAA0C4B964618685968944693
:10C15000ACE803000833BB426246F6D11B788CF88A
:10C16000003025221AA9704603F056FC1034C4E7AB
:10C170003046FFF769FFBAE7383B050008B5FFF71F
:10C18000C3FD002805DBA4235843024B02221A54A6
:10C19000002008BD683F002030B59BB004460D4626
:10C1A00022F023FC6946FFF72FFD08A9204606F080
:10C1B00075F89DF821302BB920462DB11FF058F8A5
:10C1C000FFF7B8FC1BB030BDFFF7D8FF02212046B7
:10C1D00022F0B9FB0028F5D12046FFF79FFD00288B
:10C1E000F0D0838D23B111A9204606F057F8E7E778
:10C1F000084A8260084AC260012202824FF6FF723A
:10C20000C282037600F10801406808F0CFFA0028E6
:10C21000E9D0D7E7696C050039BD0200024B187000
:10C2200002481DF089BD00BF9D1200208C07002030
:10C2300008B5044801F0AAFD002818BF6FF01500EA
:10C2400008BD00BF1DC20200014B1878704700BF37
:10C250009D120020084B1B780B2B4FF001000AD8D1
:10C26000984010F41A7F05D110F4016F0CBF012023
:10C2700000207047022070479D12002010B5094829
:10C28000094C1DF005F8206048B1084B08494D22C3
:10C2900018F036FC206825F01FFB002010BD6FF061
:10C2A0001500FBE77A6C05000C4000200C530500DC
:10C2B000806C050001481DF0A1BB00BF6C1500207B
:10C2C00038B504460D46FFF7BFFF0B280BD8DFE853
:10C2D00000F01E1E0A0A1E060A0A0A0A0A1EBDE805
:10C2E000384001F01DBD4FF47672002309481DF05F
:10C2F000ABFB09482146006800232A4625F0F6FAE0
:10C30000044610B103481DF079FB204638BD6FF09C
:10C310001204FAE76C1500200C4000202DE9F043D0
:10C3200086B285B0C0F30747000EFAF7A3FF47496E
:10C33000FBF7A8F80446F8B2FAF79CFF4349FBF76D
:10C34000A1F880463046FAF795FF4149FBF79AF885
:10C350004049FAF7E3FF3C25B6FBF5F5EDB206469A
:10C360002846FAF787FF01463046FAF7CDFE4146E8
:10C3700081464FF07E50FAF7C7FE2146FAF7CEFF0E
:10C38000494606464046FAF7C9FF01464FF07E503F
:10C39000FAF7BAFE2146FAF7C1FF494607464FF0C1
:10C3A0007E50FAF7B1FE4146FAF7B8FF01464FF06A
:10C3B0007E50FAF7A9FE2146FAF7B0FF0623B5FB37
:10C3C000F3F203FB1255EDB2013D042D04D8DFE872
:10C3D00005F0052B2E333800274604461E49384603
:10C3E000FAF79CFFFBF7EAF81B4905462046FAF7E7
:10C3F00095FFFBF7E3F8184904463046FAF78EFF3D
:10C400004FF00008FBF7DAF8434668F30703EDB294
:10C4100065F30F23E4B264F31743C0B260F31F6304
:10C42000184605B0BDE8F08337460646D6E73B46DA
:10C43000374626461C46D1E72346074634461E4665
:10C44000CCE73B46274634461E46C7E70000C842B5
:10C450000000B4430000C04000007F4373B50C46A9
:10C4600015460C4901AA1E461FF072FE58B1019BE9
:10C470004BB90A2C0AD1084922463046A84700EA9F
:10C48000E07002B070BD6FF00100FAE76FF01500C8
:10C49000F7E700BFA56905007C700020024903484A
:10C4A0000A2201F059BF00BF7C700020CD6C05004E
:10C4B00008B5054B1B7A33B100F09AFABDE8084085
:10C4C000024926F026BC08BD7C700020C40700206D
:10C4D000164B37B5164A1A601648174D1CF0D8FE91
:10C4E000164B1860164B1A682A605A681B896A60D6
:10C4F0002B8102F085F8134801F0BEFF044690B985
:10C500001149124826F01CFC114801F05FFF2B7AFC
:10C510004BB140F267620023CDE900230D480022B1
:10C5200000231EF0E7F9204603B030BD1440002080
:10C5300098360500746905007C70002010400020CA
:10C54000BE3B0500AC0700209DC40200E819002096
:10C55000E16C0500801300202DE9F0435B4C63790A
:10C5600085B0032B1ED8DFE803F002275C81584E0C
:10C57000002563882288ADF80020ADF802300098CD
:10C58000FFF7CCFE06EB850306F82500C0F3072273
:10C5900001355A700A2DC0F30742C0F307609A7044
:10C5A000D870E6D14B4B4A49186883681B680A2249
:10C5B00005B0BDE8F0431847454F00264FF00C0882
:10C5C000E588A3788DF80630A5F59663002B2288C0
:10C5D000ADF80420B8BF5B42B3FBF8F38DF8073029
:10C5E0000198FFF79BFE07EB860307F82600C0F3D0
:10C5F000072201365A700A2EC0F30742C0F30760C3
:10C600009A70D870DCD1237903EB830305EB4305E3
:10C61000ADB2B5F5166F01D8E580C3E70023E3801E
:10C62000C0E72B4F00266388E588ADF80A30ADF8E7
:10C6300008500298FFF772FE07EB860307F8260002
:10C64000C0F3072201365A700A2EC0F30742C0F326
:10C6500007609A70D870E6D123791D44ADB24FF4CB
:10C66000B473B5FBF3F203FB1255D5E7DFF8608036
:10C6700000264FF024094FF4B477E5886288ADF8BE
:10C680000E2009FB0653B3FBF7F107FB1133ADF89E
:10C690000C300398FFF742FE08EB860308F82600EB
:10C6A000C0F3072201365A700A2EC0F30742C0F3C6
:10C6B00007609A70D870E0D1237905EB4305ADB2DD
:10C6C000B5FBF7F307FB1355A6E700BF7C7000200E
:10C6D000E2710020144000200022064B114643F86E
:10C6E000221001320A2AFAD1034B024918688368E2
:10C6F0001B681847E27100201440002008B54FF471
:10C70000F012002302481DF0B3FB00EAE07008BD00
:10C71000E8190020054B1B6823B1054B1B7A0370F9
:10C72000002070476FF01200704700BF14400020D7
:10C730007C70002007B5114B1B68D3B1104B1868F3
:10C7400018B183681B6803B198470E4B01221A7217
:10C750000022DA8040F267620023CDE900230A4814
:10C76000002200231EF0C6F803B05DF804EBFFF7CB
:10C77000C5BF6FF0120003B05DF804FB1440002049
:10C78000104000207C7000208013002008B50E4B64
:10C790001B68ABB10D4B186818B183685B6803B1B7
:10C7A000984700F025F90A4926F0B3FA094826F01F
:10C7B0009DFC094B00221A72BDE80840FFF79EBF9E
:10C7C0006FF0120008BD00BF144000201040002090
:10C7D0009C070020801300207C700020054B5B79B3
:10C7E00004331844434203F0030300F0030058BF2E
:10C7F000584270477C700020084B1B683BB10328EF
:10C8000008D8074B00225871DA80FFF777BF6FF026
:10C81000120070476FF01500704700BF14400020F1
:10C820007C700020034B1B7A0BB1FFF7AFBFFFF703
:10C8300081BF00BF7C70002082B083B2B3F5B47FAB
:10C8400001900CD89DF80630642B08D89DF807306D
:10C85000642B04D8034B1860002002B070476FF0BF
:10C860008500FAE77C7000200C4A138800EB8000FA
:10C8700003F5B47303EB40034FF4B4719BB2B3FB05
:10C88000F1F001FB10339BB2002063F30F005388DB
:10C8900082B063F31F4002B0704700BF7C7000207D
:10C8A00013B50C4A9378D1788DF807100A2404FB4D
:10C8B00000306428A8BF6420138820EAE0708DF857
:10C8C0000600002063F30F00BDF8063063F31F403D
:10C8D00002B010BD7C70002013B50C4AD37891785B
:10C8E0008DF806100A2404FB00306428A8BF6420D9
:10C8F000138820EAE0708DF80700002063F30F0032
:10C90000BDF8063063F31F4002B010BD7C700020FC
:10C9100010B5084B1B6853B1FFF7A6FF064C2080EB
:10C92000C0F30F406080BDE81040FFF7E7BE6FF036
:10C93000120010BD144000207C70002010B5084B80
:10C940001B6853B1FFF7ACFF064C2080C0F30F40CB
:10C950006080BDE81040FFF7D1BE6FF0120010BD3F
:10C96000144000207C70002010B5084B1B6853B1A8
:10C97000FFF7B2FF064C2080C0F30F406080BDE897
:10C980001040FFF7BBBE6FF0120010BD1440002036
:10C990007C7000200A4B1B686BB10A4A1379012B8B
:10C9A00001D100280ADB0344DBB2052B28BF052395
:10C9B0001371FFF7A3BE6FF012007047002070479D
:10C9C000144000207C70002007B5064B00930649F8
:10C9D00006480A234FF440721DF0B4F9002003B05A
:10C9E0005DF804FB20530500D0780020181A0020C1
:10C9F00000487047181A00200148FDF7D7BB00BF58
:10CA0000D036050010B5094C0A44914200D110BD42
:10CA100011F8013B584003090001E35CC0B24340F8
:10CA200018091B01205CDBB25840EEE7076D0500DA
:10CA3000014B1B68184700BFD407002007B50B4601
:10CA4000002102460091034800F02AF903B05DF886
:10CA500004FB00BF31CA020030B587B00025CDE924
:10CA600003010446009503A90548059500F018F94F
:10CA7000DDE904309842B8BF255407B030BD00BF8F
:10CA800095B404002DE9F047058B0446280790462D
:10CA900011D4022905F0070540F0CD8020461EF094
:10CAA00041FD78B10138218B042811D8DFE800F06E
:10CAB000C3106D85950001290CBF45F0100545F0A8
:10CAC0002005258388F31188BFF36F8FBDE8F087B9
:10CAD00001F0070AAA4500F0A6800027B9463E46A5
