:020000022000DC
:1070000030670020E9C402007B660400BDC40200B2
:10701000BDC40200BDC40200BDC4020000000000E7
:1070200000000000000000000000000021C202007B
:10703000BDC4020000000000D9C10200BDC40200AE
:107040009DC202002DB303009DC202009DC202003A
:107050009DC202009DC202009DC202009DC20200AC
:107060009DC202009DC202009DC202009DC202009C
:107070009DC202009DC202009DC202009DC202008C
:107080009DC202009DC202009DC202009DC202007C
:107090009DC202009DC202009DC202009DC202006C
:1070A0009DC202009DC202009DC202009DC202005C
:1070B0009DC202009DC202009DC202009DC202004C
:1070C0009DC202009DC202009DC202009DC202003C
:1070D0009DC202009DC202009DC202009DC202002C
:1070E0009DC202009DC202009DC202009DC202001C
:1070F0009DC202009DC202009DC202009DC202000C
:1071000080F0004002E000BF81F0004142001FBF5C
:107110005FEA410392EA030F7FEA226C7FEA236C65
:107120006AD04FEA1262D2EB1363C1BFD21841405A
:1071300048404140B8BF5B42192B88BF704710F0F0
:10714000004F40F4000020F07F4018BF404211F093
:10715000004F41F4000121F07F4118BF494292EAFB
:10716000030F3FD0A2F1010241FA03FC10EB0C0027
:10717000C3F1200301FA03F100F0004302D54942B4
:1071800060EB4000B0F5000F13D3B0F1807F06D361
:1071900040084FEA310102F10102FE2A51D2B1F159
:1071A000004F40EBC25008BF20F0010040EA03004E
:1071B0007047490040EB0000013A28BFB0F5000FCE
:1071C000EDD2B0FA80FCACF1080CB2EB0C0200FA84
:1071D0000CF0AABF00EBC25052421843BCBFD040D3
:1071E0001843704792F0000F81F4000106BF80F44D
:1071F00000000132013BB5E74FEA41037FEA226C10
:1072000018BF7FEA236C21D092EA030F04D092F0DA
:10721000000F08BF0846704790EA010F1CBF00200E
:10722000704712F07F4F04D1400028BF40F000406B
:10723000704712F100723CBF00F50000704700F08B
:10724000004343F0FE4040F4000070477FEA2262B2
:1072500016BF08467FEA23630146420206BF5FEA83
:10726000412390EA010F40F4800070474FF0000383
:1072700004E000BF10F0004348BF40425FEA000C4A
:1072800008BF704743F0964301464FF000001CE0F2
:1072900050EA010208BF70474FF000030AE000BF48
:1072A00050EA010208BF704711F0004302D5404286
:1072B00061EB41015FEA010C02BF844601460020F8
:1072C00043F0B64308BFA3F18053A3F50003BCFA13
:1072D0008CF2083AA3EBC25310DB01FA02FC6344C0
:1072E00000FA02FCC2F12002BCF1004F20FA02F2C7
:1072F00043EB020008BF20F00100704702F12002BA
:1073000001FA02FCC2F1200250EA4C0021FA02F21A
:1073100043EB020008BF20EADC7070474FF0FF0C1F
:107320001CEAD0521EBF1CEAD15392EA0C0F93EA1A
:107330000C0F6FD01A4480EA010C400218BF5FEABC
:1073400041211ED04FF0006343EA501043EA51112F
:10735000A0FB01310CF00040B1F5000F3EBF490029
:1073600041EAD3715B0040EA010062F17F02FD2A2D
:107370001DD8B3F1004F40EBC25008BF20F0010010
:10738000704790F0000F0CF0004C08BF49024CEA27
:10739000502040EA51207F3AC2BFD2F1FF0340EAB9
:1073A000C250704740F400004FF00003013A5DDC2A
:1073B00012F1190FDCBF00F000407047C2F100026B
:1073C000410021FA02F1C2F1200200FA02FC5FEA58
:1073D000310040F1000053EA4C0308BF20EADC70A2
:1073E000704792F0000F00F0004C02BF400010F414
:1073F000000F013AF9D040EA0C0093F0000F01F0C1
:10740000004C02BF490011F4000F013BF9D041EAE2
:107410000C018FE70CEAD15392EA0C0F18BF93EAE4
:107420000C0F0AD030F0004C18BF31F0004CD8D10E
:1074300080EA010000F00040704790F0000F17BF95
:1074400090F0004F084691F0000F91F0004F14D0DB
:1074500092EA0C0F01D142020FD193EA0C0F03D133
:107460004B0218BF084608D180EA010000F0004036
:1074700040F0FE4040F40000704740F0FE4040F411
:10748000400070474FF0FF0C1CEAD0521EBF1CEAB0
:10749000D15392EA0C0F93EA0C0F69D0A2EB0302CE
:1074A00080EA010C49024FEA402037D04FF0805368
:1074B00043EA111143EA10130CF000408B4238BF2D
:1074C0005B0042F17D024FF4000C8B4224BF5B1A3B
:1074D00040EA0C00B3EB510F24BFA3EB510340EA89
:1074E0005C00B3EB910F24BFA3EB910340EA9C0037
:1074F000B3EBD10F24BFA3EBD10340EADC001B01A7
:1075000018BF5FEA1C1CE0D1FD2A3FF650AF8B424A
:1075100040EBC25008BF20F0010070470CF0004C57
:107520004CEA50207F32C2BFD2F1FF0340EAC25082
:10753000704740F400004FF00003013A37E792F043
:10754000000F00F0004C02BF400010F4000F013AA1
:10755000F9D040EA0C0093F0000F01F0004C02BF9C
:10756000490011F4000F013BF9D041EA0C0195E705
:107570000CEAD15392EA0C0F08D142027FF47DAF9E
:1075800093EA0C0F7FF470AF084676E793EA0C0F8E
:1075900004D14B023FF44CAF08466EE730F0004C8C
:1075A00018BF31F0004CCAD130F000427FF45CAF1C
:1075B00031F000437FF43CAF5FE700BF42000ED2E2
:1075C000B2F1FE4F0BD34FF09E03B3EB126209D41E
:1075D0004FEA002343F0004323FA02F070474FF0D4
:1075E0000000704712F1610F01D1420202D14FF049
:1075F000FF3070474FF00000704700BF53B94AB9E1
:10760000002908BF00281CBF4FF0FF314FF0FF30AA
:1076100000F00CB8ADF1080C6DE904CE00F008F8EC
:10762000DDF804E0DDE9022304B07047704700BFD5
:107630002DE9F04786468C460846089E1546744656
:107640001946002B40F0C2808542B2FA82F245D939
:107650004AB1C2F1200300FA02FC2EFA03F395406E
:1076600043EA0C0C94404FEA154EA8B2BCFBFEF85E
:10767000230C0EFB18CC08FB00F943EA0C43994598
:1076800028D9EB1808F1FF3704D2994502D9A8F19F
:1076900002072B44A3EB0903A4B2B3FBFEFC0EFBD1
:1076A0001C330CFB00F044EA0344A04214D92C190B
:1076B0000CF1FF3304D2A04202D9ACF102032C44F6
:1076C000241A43EA07401EB1D4400023346073609B
:1076D000BDE8F0874746DDE76346F1E792BB431B11
:1076E00001214FEA154EAFB2B3FBFEFC200C0EFB9E
:1076F0001C330CFB07F840EA0343984562D9EB18AA
:107700000CF1FF3004D2984502D9ACF102002B44B1
:10771000A3EB0803A4B2B3FBFEFC0EFB1C330CFB73
:1077200007F744EA0344A7424ED92C190CF1FF3362
:1077300004D2A74202D9ACF102032C44E41B43EA71
:107740000040C0E7C2F1200320FA03F195409040C9
:107750002EFA03F303434FEA154EAFB2B1FBFEFC22
:107760000EFB1C10190C0CFB07F841EA0041884580
:1077700004FA02F422D969180CF1FF3004D28845CA
:1077800002D9ACF102002944A1EB08019BB2B1FB84
:10779000FEFC0EFB1C110CFB07F743EA01439F4262
:1077A0000ED9EB180CF1FF3104D29F4202D9ACF193
:1077B00002012B44DB1B41EA004192E76046E3E70C
:1077C0006146F7E76046A3E76346B7E7834206D919
:1077D00016B9002108467BE7C6E900E0F9E7B3FAED
:1077E00083F78FB9834201D3724508D8BEEB0204F8
:1077F00060EB030301209C461EB9002168E7384670
:10780000FAE7C6E9004CF8E7C7F1200CBB4022FAC2
:107810000CF41C432EFA0CF120FA0CF3B84001438F
:107820004FEA14490EFA07F5B3FBF9F81FFA84FE84
:1078300009FB18300B0C08FB0EFA43EA00439A458B
:1078400002FA07F240D9E31808F1FF3004D29A4552
:1078500002D9A8F102002344A3EB0A0389B2B3FBC7
:10786000F9F809FB183308FB0EFE41EA03418E4587
:107870002CD9611808F1FF3304D28E4502D9A8F142
:107880000203214443EA0040A0FB0298A1EB0E0151
:107890004145CE46434602D306D14D4504D2B9EB0D
:1078A000020E68EB04030138002EA6D0B5EB0E02E1
:1078B00061EB030101FA0CFC22FA07F34CEA030323
:1078C000F940C6E9003198E74046C5E74346D9E7A5
:1078D00073B5C24DD5F85431996811F0010121D129
:1078E00001AA40F6034005F0CFFB0446002864D10E
:1078F000019883681B789BB9BFF35B8FD5F8CC30B8
:10790000BFF35B8F05F1CC0203F00903BFF35B8F7C
:1079100052E8001F42E80034002CF9D1BFF35B8F1E
:1079200016F0C8FB01AA002141F2030005F0ACFBF0
:107930000446002841D1019EA948B16808220131BE
:107940001EF0EBFF304616F0B5FB214601AA41F2CE
:10795000010005F099FB044678BB019883685A78CA
:1079600085F868205A88A5F86A201A7985F8692070
:10797000B3F80720A5F86C20B3F80530A5F86E30F1
:1079800016F098FB214601AA41F2020005F07CFBAB
:10799000044690B9019E9348B168402201311EF01F
:1079A000BCFF90481FF040F8304616F083FB95F876
:1079B00074305A0604D46FF01204204602B070BD31
:1079C000214601AA42F2030005F05EFB04460028AE
:1079D000F3D1019E8448B168082201311EF09DFF59
:1079E000304616F067FB214601AA42F2020005F07C
:1079F0004BFB04460028E0D1019CA368B3F80120AA
:107A0000A5F8FC2091B221B1DA787848114623F02C
:107A10006DF8204616F04EFB95F8746016F02006BF
:107A200018D1022140F66D4005F0D2FA0446002834
:107A300000F0CC800221083021F0CAFE012303703F
:107A400046702146324640F66D4005F01DFB044667
:107A50000028B2D195F894301B0712D501AA002155
:107A600042F21C0005F010FB04460028A5D1019845
:107A70008368D3F80120D3F80530C5E9362316F022
:107A800019FB95F8D0309E0624D50DF10201684609
:107A90001FF051FA044600288FD1042142F224003D
:107AA00005F096FA0646002800F090800421083080
:107AB00021F08EFEBDF800300380BDF80230438017
:107AC0002246314642F2240005F0DEFA0446002840
:107AD0007FF473AF95F8D0305C0610D501AA002171
:107AE00042F22A0005F0D0FA044600287FF465AF80
:107AF000019883685B7885F8183116F0DBFA082165
:107B000042F2010005F064FA044600285ED0082124
:107B1000084421F05DFE95F8D01011F0400F0246A8
:107B200040F2022308BF032388074CBF43F02C0018
:107B300043F00C008B0695F8D13048BF40F0400070
:107B400013F0090F95F89A3018BF40F4006003F065
:107B50000603CE0748BF40F01000062B08BF40F4D4
:107B6000C07000211FF0C7F82146002242F2010038
:107B700005F08AFA044600287FF41FAF95F87430A8
:107B8000B5F8FC10980624D4C9B901AA41F2050041
:107B900005F07AFA044600287FF40FAFB5F8FC3000
:107BA000019C4BB9A368B3F80120A5F8FC209A8882
:107BB0000E48114622F09AFF204616F07BFA082163
:107BC00040F6014005F004FA044688B96FF06804F5
:107BD000F3E60029F3D16FF00404EEE60000002084
:107BE0007000002078000020D0000020000100205C
:107BF0000821084421F0ECFD95F8D030D907024661
:107C000057D431484FF000511FF075F8214600223B
:107C100040F6014005F038FA044600287FF4CDAE66
:107C2000014601AA4FF6014005F02EFA044648BB72
:107C3000019816F03FFA214601AA4FF6024005F0DE
:107C400023FA0446F0B9019E2048B16802220131AE
:107C50001EF063FE304616F02DFA95F8B9305B073A
:107C600010D501AA21464FF6034005F00DFA48B998
:107C7000019C1748A168012211441EF04EFE2046C7
:107C800016F018FA1FF075FB044600287FF495AE35
:107C900007F0A2F8044600287FF48FAEEB79002BA2
:107CA0003FF48BAE08210B481EF07DFF05F0C6FCAB
:107CB00083E603A1D1E90001A6E700BFAFF300808E
:107CC000908800020080002010880002B900002087
:107CD000B8000020CC0000202DE9F843D0E90B3596
:107CE000D0F828805C193034A0450F46164619D8C4
:107CF0001D4DA3FB05011AA3D3E90023FFF77EFC6A
:107D00000346A4EB0800A0FB050123F07F4414A365
:107D1000D3E90023FFF772FC20F07F403C60306025
:107D2000BDE8F883DFF840900DA3D3E90023A8FB5A
:107D30000901FFF763FC044605F1300008A3D3E90D
:107D40000023A0FB0901FFF759FC24F07F4420F039
:107D50007F403C603060BDE8F88300BFAFF3008037
:107D60008D49FD1A0700000000CA9A3B0000000080
:107D7000002800F089812DE9F04FCB4D95F86A304D
:107D8000D8078DB000F1CF8195F8292095F83530CE
:107D900005EB820205EB8303D76AD3F838800FB373
:107DA0003C4614F8020BC0F380100BF0CDFA06220B
:107DB000014620461EF0B1FD3B78590606D5062146
:107DC00020460AF045F8002800F0AF81444614F838
:107DD000020BC0F380100BF0B7FA062201462046D2
:107DE0001EF09BFD3B7813F00E0F40F0E6802B6AEF
:107DF0001BB10C200DB0BDE8F08F0DF079F9814674
:107E0000002800F09F810DF07FF98246002800F0E5
:107E100096810FF09DF90446002800F09581406F8F
:107E20004FF6FF73238504F11C0B002800F08381BB
:107E300004F1680204F164010AF016F8B4F8603045
:107E40009A4A23F4EF6323F0070343F4887343F063
:107E50000103A4F8603094F8393003F03F0363F075
:107E60007F0384F8393094F87A3023F0070384F8DC
:107E70007A3094F83C3023F0070384F83C3094F8CF
:107E8000D83023F0070384F8D83094F80E31002658
:107E900066F3041384F80E314FF01B13C4E9163255
:107EA0000623A4F8C030C4E912666667A4F87860B7
:107EB0006686C4F82E6084F83B602665A4F8C4602A
:107EC000A4F8C860A4F8D060A4F8CC6084F8E66098
:107ED000A4F8E460C4F80861A4F80C61A4F8206177
:107EE0000CF04EFC94F83A31A4F8386123F0030307
:107EF00084F83A3194F87A30A4F8406123F01803FA
:107F000084F87A3094F8663184F8436123F00703EB
:107F100084F8663194F88631C4F8449166F3861388
:107F200084F8863194F8B631A4F8646166F3C3032B
:107F3000002284F8B6310023C4E94A01C4E94C2385
:107F400084F8D960A4F88461A4F89661C4F8E0606C
:107F5000A4F8B461A4F8C0610FF034FCA4F8D20016
:107F60000FF036FCD4F8C421514BA4F8D4001340D0
:107F7000C4F8C4310FF032FC94F8C83160F3020346
:107F800084F8C8310FF030FC94F8C831C5F820B03F
:107F900060F3C503C5E9189AC4E97666C4E9746656
:107FA000C4E90566C4F8CC612670E46184F8C83180
:107FB00013F022FF002840F0BA8095F82430012108
:107FC000C3F342030DF12B008DF82B300AF0D6F8E5
:107FD000024600285AD098F8011038460DF0AAFF42
:107FE0003449B5F8686000243123AB60C5E9054425
:107FF0002BA3D3E900232C706C60EC60A0FB010183
:10800000FFF7FCFA28610BF075F980463EB93C7821
:1080100004F00F04A4F10104B4FA84F4640995F89F
:1080200024002B6964F3000010F0010485F824009B
:1080300048D00020204A214F049302240BAE019324
:1080400005920321CDE9020008960695434600906B
:10805000079722460B940BF07FF831460DF000F99C
:10806000A0B9174905914AF2D8330093CDE903002E
:10807000CDE90100079708960695434601220321A2
:108080000B940BF069F843E00DF0A6BE2B6A002BB1
:108090003FF4AFAE0DF05EFEABE600BFAFF3008085
:1080A0008D49FD1A070000001028002048014801F2
:1080B0000000FFF600CA9A3BA55F030021480300B9
:1080C000F95A0300264A2748049303F247130695FA
:1080D000029491211360A6FB000301FB0631224BA1
:1080E0000793224B05934FF6FF73099202270393E0
:1080F0000BAE19A3D3E900230B970896FFF77EFA7E
:108100004346CDE900403A46204603210AF0CEFF1F
:1081100031460DF0A5F80028B8D195F86A3043F043
:10812000010385F86A30002064E6122062E60DF053
:1081300011FE03205EE604F16C00606778E64846B5
:108140000CF0DCFF072055E650460CF0E3FF4846F4
:108150000CF0D4FFF6E700BF8D49FD1A07000000C0
:1081600004280020002AE78421480300A55F0300BB
:1081700070B590F824308AB0C3F342030D4604462C
:1081800001210DF1230016468DF8233009F0F6FF8A
:108190007178024628460DF0CDFE1D491AA3D3E999
:1081A0000023A0FB0101FFF729FA23699842054645
:1081B00022D21B1A00220192164A02930221164B68
:1081C0000991A21ACA40A3FB0232D20800230A4432
:1081D00009AE12490591CDE903330321D2B20696C7
:1081E000009318460BF02CF831460DF039F838B9E9
:1081F000256100200AB070BDFBD9C21A0023DAE75E
:108200000C200AB070BD00BF8D49FD1A07000000A8
:1082100000CA9A3B10280020F712DA4B21480300CD
:108220002DE9F04FC38D468EB0F8E8701E4490F8EB
:108230000E31B6B2314413F007038BB004461FFA77
:1082400081F940F08D81A9EB07011FFA81F909043A
:1082500000F1E781904690F93920002AC0F2498167
:1082600094F8E43084F8E53094F8842194F885316A
:1082700094F80C1184F80D11934206D094F88631CD
:1082800003F00F03062B00F03C82A74BD4F80851F3
:108290001A68944204BF00221A60002D00F0318158
:1082A0002B68002B00F02D815B68628DC4F80831CB
:1082B000B4F81031934205D1B4F81211A28D914255
:1082C00000F00382238DEB8019232B7100232B7781
:1082D000B4F81031EB83B4F812312B84B4F81431B4
:1082E00028686B8429460CF01BFF0CF023FFA36861
:1082F000002BC0F2F280B4F82AC0B4F810511CFB75
:1083000009FC1FFA8CFCBCFBF5F315FB03F080B2F3
:1083100084451FFA83FA80F0CE80A0EB0C0040F277
:10832000E242824902FB00F0A0FB01017CA3D3E9F9
:108330000023FFF763F920F07F408044E38D1F4462
:10834000BF1B94F939305744E785002B40F2E247D0
:1083500007FB05F6C0F26881754A764976484FF406
:1083600058631CF014FC404080F311884FF0030068
:1083700002DF0027B346714AD4F81011B4F8143163
:108380006F48C4F82A103244B2FBF6F2A4F8C620B3
:1083900042F21072090C02FB03633044013BB0FB54
:1083A000F6F0B3FBF6F3A4F8C23083B2881D834223
:1083B000A4F8CE3004DDC1F57F41FA310B449BB205
:1083C000A4F8CA3094F80E311B0744BF0023A4F868
:1083D000C4300221012015F0F3FB00220221824665
:1083E000012009F091FD57494FF4F472204609F03D
:1083F0001BFD00F103095FFA89F9534B00944A46CB
:10840000012100200AF034FF30F002030CD0484A6A
:108410004E49494840F6AF531CF0B9FB404080F349
:1084200011884FF0030002DF404EABFB066B3CA30C
:10843000D3E9002330465946FFF7E0F80894069444
:1084400023690493424B20F07F45A5FB0331F01ACA
:10845000404B07934FF007023F4B059302FB05117A
:108460004FF6FE736BEB010103934FF47A72002316
:10847000FFF7C4F84346CDE9015000974A46012171
:1084800000200AF069FE30F002030CD0284A2F4980
:10849000294840F6C9531CF07AFB404080F311880C
:1084A0004FF0030002DFBAF1000F40F00881002016
:1084B0000BB0BDE8F08F05FB13C11C4840F2E2434E
:1084C00089B203FB01F1A1FB000115A3D3E900234D
:1084D000FFF794F8A8EB000830E7E168626823F042
:1084E000004391422CBF88449044A360A8EB03084A
:1084F00001E790F8D920002A3FF4B2AE80F8D930D5
:10850000B2E60B4A15490C4840F6FA431CF03FFB13
:10851000404080F311884FF0030002DF2B68C3E670
:108520008D49FD1A070000002C2A002000CA9A3B42
:10853000A8C6040058C20400F8C10400FF59620232
:108540007FC3C901D01600208169030088C70400D9
:108550008D49FD1A29690300FDAF030074C70400AB
:1085600001200CF0EDFD0646002800F0DC807C4880
:1085700009F022FC0546002800F0D580794B1A68E6
:10858000002A00F0C7800CF0FDFD3368D4F8082104
:108590005A60C4F808612B79002143F003030C22D0
:1085A0006A712B71E97194F81C312B72D4F818316F
:1085B0006D4AA2FB03239B0AA5F80930B4F81031D9
:1085C000A5F80B30B4F81231A5F80D30B4F8143119
:1085D000A5F80F30A38D94F80E2106334B4461F3B8
:1085E00002029BB284F80E21A4F8E830A5F81130FD
:1085F00094F80E31D4F8D021D4F8CC1143F0100304
:1086000084F80E31002A00F08780D4F8D4311B683A
:108610002B60D4F8D4311D60C4F8D4512B68002BE2
:108620007ED06FF0760043E7226CA36C02FB193317
:10863000A36413F031FC054694F8D800C0F3C200DF
:1086400013F02CFC054406FB05F5484B94F81C215F
:1086500005F5742505F23F25A3FB0535AD0C07FB99
:1086600002F2A36C226505FB0AF072080344963AF5
:10867000934228BF13462564A6EB050B3C4DC4E985
:1086800011230023C4F8E030A0FB050132A3D3E995
:108690000023FEF7B3FF344BA8EB0008D4F8180111
:1086A000A3FB0030800A07FB00F02BA3D3E90023D3
:1086B000A0FB0501FEF7A2FF20F07F475BE6012249
:1086C0000221104609F020FCF1E640F2E241B4F844
:1086D000142101FB03F342F2107101FB0232013A53
:1086E000B2FBF3F3B4F8C2209BB29A427FF4EAAD36
:1086F000012328682B7129460CF012FD0CF01AFD9D
:10870000F5E5B4F896318BB984F885210023A4F8F7
:10871000C830BAE51C6036E72960C4E973557BE7C9
:10872000C4F8DC517DE76FF06800C1E6A4F88E3133
:10873000B4F8863103F0C00343F01003A4F8863187
:10874000D4F89031C4F88831B4F89431A4F88C315D
:108750000023A4F89631D9E78D49FD1A07000000DF
:10876000E42800202C2A00205917B7D183DE1B43B0
:1087700000CA9A3B000000002DE9F04F0B68D3F8C7
:108780000090037F93B09046C3F3801316460546CE
:1087900006220F4600F11E0110A80A9358F8084B54
:1087A0001EF0BBF810A906220EA81EF0B6F8294646
:1087B000404651F82EBB032206F1040A1EF0ADF824
:1087C00006F11808042205F12A0150461EF0A5F80A
:1087D000052205F13A0140461EF09FF8404605216A
:1087E00009F0CCFC737F00F03F0060F30503737762
:1087F00095F83F30C3F30402B277AA8EF2810128C4
:1088000008D903F01F031B3303F01F030B2B01D800
:1088100092B2CAB90022C9F8142096F8203062F347
:10882000000386F82030EC680126584629462E7150
:108830000CF076FC2068267121460CF071FC0CF0DF
:1088400079FC13B0BDE8F08F3B6800225A60EB8ED4
:10885000338295F83F3094F8D820B6F80E805B0943
:1088600063F3C5026B8E84F8D82040F2E24202FB2B
:1088700008F80C9313F010FB0B9094F8D800C0F399
:10888000C20013F00BFB0B9B184408FB00F0AE4B2F
:1088900000F5742000F23F20A3FB00304FEA58039C
:1088A000800C963B7062B36295F8313040F2E24240
:1088B00002FB03F3B3632B8FA44AADF8363019469D
:1088C0004244A34BB2FBF8F2A4F8C6208AB242F2AB
:1088D000107101FB02824344013AB3FBF8F3B2FB8F
:1088E000F8F2A4F8C2209AB2A4F8CE20318A881DEA
:1088F000824204DDC1F57F41FA310A4492B2A4F804
:10890000CA205146042204F1DC001EF006F82B4672
:1089100013F81C2FC2F340120B92DA0700F1EF801C
:108920009DF82830AB774FF480730EA9AB830622F5
:1089300005F11F001DF0F1FFF389EB84338A2B85CD
:10894000BDF836306B8594F8D830C3F3C20385F890
:108950002C3020460EF008FCB081E88029465846AD
:108960007D680CF0DDFBB389EB801C232B710B9B26
:10897000D5F800B0002B40F0B8800B9B2B77294630
:1089800058460CF0CDFB0CF0D5FB96F84500B6F838
:1089900040A0B6F84250012100F0070013F090F813
:1089A000554405F56175291883466A484FF0000A59
:1089B0003123A360A1FB000161A3D3E90023C4F824
:1089C00004A0C4F80CA0FEF719FE20F07F4020613F
:1089D0000C99FB68756A40F2E24202FB013303F234
:1089E000B243A3EB0B035246022101200A9309F084
:1089F0008BFA48460DF086FC821C574BCDF8009050
:108A0000D2B2504601210AF033FC0128A8EB05053B
:108A100000F0828099F82430DB075ED420460EF007
:108A2000A3FBDFF83091A5FB098545A3D3E900231B
:108A3000824629464046FEF7E1FDBB68474A079259
:108A40000AF10307A3F1490A454B069420F07F463B
:108A5000A6FB0331B8EB0300424B05934FF4EB73D5
:108A6000089323694FF0000BCDE903B34FF00703E0
:108A700003FB061165EB01014FF47A720023FEF748
:108A8000BDFD0A9BCDE90160A3FB09012CA3D3E93D
:108A90000023FEF7B3FDFFB220F07F400090534665
:108AA0003A46012158460AF057FB30F002030CD039
:108AB0002D4A2E492E4840F2D7131CF068F840404A
:108AC00080F311884FF0030002DF012202211046DB
:108AD00009F01AFA13B0BDE8F08F002301220093C9
:108AE000184611460AF0C4FB98E7737F43F0400331
:108AF0007377504612F0A6FB0123F0833EE71A4A33
:108B00001C491B48FF231CF042F8404080F31188A9
:108B10004FF0030002DF03E70CF0E2FB81453FF476
:108B200079AF114A1449124840F2A1231CF02FF8E2
:108B3000404080F311884FF0030002DF6AE700BF76
:108B40008D49FD1A0700000083DE1B43FF596202B6
:108B50007FC3C90100CA9A3BC1AF030091AF0300B4
:108B60008D49FD1AFDAF0300CCC8040088C704007E
:108B7000F8C10400E4C2040028C904000000000099
:108B80002DE9F04F8FB0DFF8D8800B900DF1370151
:108B90000DF136000CF03EFB324F9DF836A09DF8EB
:108BA00037B00AF0A7FBD8F800400A90A4FB07549E
:108BB00029A3D3E90023002621462846FEF71EFDFF
:108BC0000B9B0693CDE90766274B05938146D8F8A2
:108BD000040021A3D3E90023A0FB0701FEF70EFD4B
:108BE000224B29F07F47A7FB033120F07F4007226B
:108BF000CDE9036002FB0711E81A64EB01014FF4B1
:108C00007A720023FEF7FAFC0A9B0096CDE9017008
:108C10005A46032150460AF09FFA30F0020416D15A
:108C2000134A144800231AF0CBF968B19DF8372095
:108C30009DF836000094234603210AF019FB6FF0DB
:108C400073000FB0BDE8F08FD8F80C00F9E76FF0B3
:108C50008B00F6E7AFF300808D49FD1A0700000096
:108C60004437002000CA9A3BF5FE03008D49FD1AE7
:108C7000447B0B002C37002038B50F4D04460AF01A
:108C800039FBA9680AF038FB6968B0FBF4F40444C6
:108C90000A4807A3D3E90023A1FB0001FEF7AEFCBD
:108CA00020F07F40844294BF0020012038BD00BFE7
:108CB0008D49FD1A070000004437002000CA9A3B86
:108CC00001481AF0F5BA00BF6802002007B522F08B
:108CD00081F94FF47A72A0FB020302FB0131C00B51
:108CE000074A40EA4140106000234FF40042054823
:108CF000CDE900231BF0BAF8002003B05DF804FBB7
:108D0000201B0020100C002008B5044B187800F040
:108D1000B1F9BDE808401BF0ACB900BFEE3A002045
:108D2000044B1A78824202D01870FFF7EDBF002082
:108D3000704700BFEE3A002008B522F04BF94FF41F
:108D40007A72A0FB020302FB0131C00B044A40EA25
:108D500041401060BDE808400020FFF7E1BF00BFC0
:108D6000201B00201FB522F035F94FF47A72A0FBCA
:108D7000020302FB0131134AC30B126843EA414369
:108D80009B1A114A934218DD00F0F0FB044628B10B
:108D9000012004B0BDE81040FFF7C2BF0220FFF77A
:108DA000BFFF062301A92046CDE9014403948DF8B5
:108DB000043002F091FE04B010BD47F230529342ED
:108DC000F9DDE5E7201B0020A0BB0D0030B5194CF4
:108DD0008DB00022002303A9204619F087FF08B1B7
:108DE0000DB030BDDDE90415039800F057F80028F8
:108DF000EFDBFF238DF81830B5FA85F35B09079098
:108E00008DF8203022F0E6F84FF47A72A0FB0203CE
:108E100002FB0131C00B40EA4140C90B8DE8030061
:108E200006ABCDE90A010FCB00F030F91BF021F9B8
:108E3000CFE700BF940D00201FB583F00103CDE9FB
:108E4000011203930022002301A9044819F0F8FE3F
:108E500003481AF02DFA05B05DF804FB940D0020CC
:108E6000241B002010B5044678B10949094821F0B7
:108E7000BFFEA36808491B6820469847A3689B6803
:108E80000BB120469847002010BD6FF01500FBE79E
:108E9000CD8D0200241B0020398E02000C2303FB21
:108EA000001106312C2905D8044B53F8210008B1D4
:108EB000013870476FF01500704700BF9CB904007F
:108EC0002DE9F041134B144EA3EB060807460D465F
:108ED00006EBC106C8F3C708A84506DC00243846DF
:108EE00022F023FA2046BDE8F08132683B689A42BE
:108EF0000BD13D71736838461B68984701280446BA
:108F0000ECD0022804D00028E9D101350836E3E787
:108F10000024E7E7BCD60400A4D6040000B58BB05B
:108F2000064B074A2821684603F0ACFB054901229D
:108F3000684602F041FB0BB05DF804FB78CF0400FB
:108F400082CF0400EF3A00202DE9F041466807691E
:108F50003179F38804463068D0F810E0D0F8088002
:108F6000DEF80050DA0754BF43F4B01383F4D01393
:108F70004FF0010C23F480120CFA01FCDB074CBF0C
:108F800045EA0C0525EA0C05CEF80050D8F800306B
:108F9000984760BB02F064FC164802F09DFB054652
:108FA00010BB1549154821F067FE154802F03EFB3D
:108FB0007B785BB901233B70002200230F481AF035
:108FC000DFF9A3681B680BB120469847318959B176
:108FD00040F2E7304FF47A72002300EBC1300021F9
:108FE000FEF70CFB1AF0D2FC2846BDE8F0816FF0CA
:108FF0000405F9E7880200201D8F0200900F002071
:1090000095CF040008B54FF4F012002302481AF07F
:10901000EBF900EAE07008BD900F0020F7B50C46B0
:109020001646114901AA1F461CF0CCF8B0B1019BAD
:10903000A3B9012C15D10D4D224629463846B0471B
:10904000002806DB2B780A486C7023B11BF027F848
:10905000002003B0F0BD1BF034F8F9E76FF0010019
:10906000F7E76FF01500F4E778CF0400EF3A00203F
:1090700040B5040010B504460C2022F05DF9024A08
:109080000260047210BD00BF68BA040084B070B5FD
:1090900004AC84E80F00202022F04EF90446084B6F
:1090A00044F8083B04AD06460FCD0FC495E8030015
:1090B00084E803003046BDE8704004B0704700BF4C
:1090C0006CBA04000268034B9A420CBF08300020BF
:1090D000704700BF6CBA040010B504460C2022F0A3
:1090E0002BF9024A0260047210BD00BF74BA04007A
:1090F00082B038B504A981E80C000546114819F082
:1091000083FB0446A0B16B68012B0CD0022B05D069
:10911000A3B9BDE8384002B01BF007B81BF00CF84B
:1091200000282046F5DCBDE8384002B01AF0F6BF52
:109130006FF00400BDE8384002B070476FF0850062
:10914000F8E700BF78CF040082B010B502A981E82B
:109150000C0004460B4819F057FB78B16368022BEA
:1091600004D00020BDE8104002B070471AF0E4FFC0
:109170000028CCBF002001206060F2E76FF00400FF
:10918000F0E700BF78CF040010B504460C2022F0B1
:10919000D3F8024A0260047210BD00BFC8BA0400CE
:1091A00008B500F061FDBDE80840014921F04DBD62
:1091B000A002002007B50A4821F09FFA68B14FF4D9
:1091C000F0120023CDE900230648002200231AF004
:1091D0004DFE002003B05DF804FB6FF01200F9E7CC
:1091E000B0B50400480C002037B50F4CA5682C2101
:1091F000EB6820469847A0B92C212B696A46204687
:10920000984770B9094C00982378834209D0C0B2BE
:10921000207001F0DDF820B92078FFF7B5FF1AF0D3
:1092200028FF03B030BD00BFB0B50400F13A002004
:1092300010B504460C2022F07FF8024A0260047246
:1092400010BD00BFCCBA04001FB510240294044C1A
:109250000194BDF8184000941FF0FDFB04B010BD50
:10926000053B002007B5064B009306490648052339
:109270004FF424721AF022F8002003B05DF804FBCA
:10928000D4BA0400083D0020C00F002070B50F4D77
:109290000F4E8AB0002200236946284619F026FDA9
:1092A000044608B10AB070BD2146182204A81DF07A
:1092B0003FFB10230DEB030120460596CDF818D097
:1092C000ADF81C3007F02AFBE4E700BF640D002076
:1092D000F0BA04001FB50E490E4840F6CD420023F7
:1092E00019F0AEFC044670B110F10B0F08D100224A
:1092F00000236946074819F0F9FCFFF7EBFF044625
:10930000204604B010BD0449044821F09EFCF7E754
:10931000053B0020640D0020B0020020C00F00209B
:10932000C208054900F0070001238340885C03431D
:109330008B54FFF7CFBF00BF053B002010B4C1081E
:10934000054C00F00700635C0122824023EA02031F
:10935000635410BCFFF7BEBF053B002010B50020D2
:1093600004F07EF9044678B902F07AFA074802F070
:109370005DF9074802F05AF9064805F0A3FB064BD1
:1093800006481C7019F094FF204610BD95D00400CB
:1093900099D00400E8020020153B002008030020BB
:1093A0000A4BB1FA81F010B540090C461870FFF76E
:1093B0003FFF1AF05EFE3C2C07D1054B0548012209
:1093C0001A70BDE8104019F073BF10BD163B0020A5
:1093D000153B00200803002070B503788AB00446CE
:1093E0000E4607AD032B20D8DFE803F002191B1D42
:1093F000114928461DF050FA059563780493A37827
:109400000393E37802932379019363790093A3791B
:109410000A4A1E2130461BF0C7F80AB070BD084941
:10942000E7E70849E5E70849E3E7084A0A2128464B
:109430001BF0BAF8E0E700BF9CD00400C5D00400E0
:10944000A3D00400AAD00400B4D00400BED004000D
:1094500010B588B01EF05DFA6946FFF7BDFF002425
:10946000064B20461C70FFF7E3FE1AF002FE044B89
:1094700004481C7019F01CFF08B010BD163B0020FA
:10948000153B002008030020F0B51F4D1F4B286836
:10949000AA881F781E49AB798BB003AC0390ADF856
:1094A0001020002022468DF8123008F05FFB0722C2
:1094B000294620461DF021FA0646C8B100239F42E6
:1094C0000BBF1946A0211A46F02214BF1320032017
:1094D000CDE90601CDE90824ADF814308DF8163039
:1094E00000931A46194605A804F0B8FD0BB0F0BD6C
:1094F000084D0FCD05AC0FC42B68236006490096BC
:1095000033460322EFE700BFA1D20400153B002041
:109510001D95020000B9040068BB040038B507229D
:109520000C46064905461DF0E8F930B129462046AB
:109530000722BDE838401DF0F0B938BDA1D20400C3
:10954000024B1870024819F0B3BE00BFB50B0020E3
:109550001803002008B5044801F048FD002818BF92
:109560006FF0150008BD00BF41950200084B1B7845
:109570000B2B4FF001000AD8984010F41A7F05D148
:1095800010F4016F0CBF01200020704702207047CB
:10959000B50B00202DE9F04386B285B0C0F3074734
:1095A000000EFDF767FE4749FDF76CFF0446F8B271
:1095B000FDF760FE4349FDF765FF80463046FDF745
:1095C00059FE4149FDF75EFF4049FDF7A7FE3C25E6
:1095D000B6FBF5F5EDB206462846FDF74BFE014613
:1095E0003046FDF791FD414681464FF07E50FDF734
:1095F0008BFD2146FDF792FE494606464046FDF7A3
:109600008DFE01464FF07E50FDF77EFD2146FDF7B1
:1096100085FE494607464FF07E50FDF775FD4146F1
:10962000FDF77CFE01464FF07E50FDF76DFD2146B3
:10963000FDF774FE0623B5FBF3F203FB1255EDB202
:10964000013D042D04D8DFE805F0052B2E3338004A
:10965000274604461E493846FDF760FEFDF7AEFF7B
:109660001B4905462046FDF759FEFDF7A7FF18499F
:1096700004463046FDF752FE4FF00008FDF79EFF0E
:10968000434668F30703EDB265F30F23E4B264F3D6
:109690001743C0B260F31F63184605B0BDE8F083FE
:1096A00037460646D6E73B46374626461C46D1E7B0
:1096B0002346074634461E46CCE73B4627463446FB
:1096C0001E46C7E70000C8420000B4430000C04087
:1096D00000007F4373B50C4615460C4901AA1E468F
:1096E0001BF070FD58B1019B4BB90A2C0AD10849F7
:1096F00022463046A84700EAE07002B070BD6FF025
:109700000100FAE76FF01500F7E700BFA9CF0400EA
:10971000903A0020024903480A2201F04DBF00BFE1
:10972000903A0020E8D0040008B5054B1B7A33B10D
:1097300000F09AFABDE80840024921F086BA08BD57
:10974000903A002050030020164B37B5164A1A6095
:109750001648174D19F058F8164B1860164B1A6832
:109760002A605A681B896A602B8102F079F81348D5
:1097700001F0B2FF044690B91149124821F07CFA79
:10978000114801F053FF2B7A4BB140F2676200237E
:10979000CDE900230D48002200231AF067FB204684
:1097A00003B030BD381B00205CB5040078CF040046
:1097B000903A0020341B002046B9040038030020F2
:1097C0001597020060100020FCD00400800C0020DF
:1097D0002DE9F0435B4C637985B0032B1ED8DFE89D
:1097E00003F002275C81584E002563882288ADF87B
:1097F0000020ADF802300098FFF7CCFE06EB8503A1
:1098000006F82500C0F3072201355A700A2DC0F36F
:109810000742C0F307609A70D870E6D14B4B4A49B3
:10982000186883681B680A2205B0BDE8F043184732
:10983000454F00264FF00C08E588A3788DF80630D8
:10984000A5F59663002B2288ADF80420B8BF5B42D3
:10985000B3FBF8F38DF807300198FFF79BFE07EB99
:10986000860307F82600C0F3072201365A700A2E35
:10987000C0F30742C0F307609A70D870DCD1237937
:1098800003EB830305EB4305ADB2B5F5166F01D8C5
:10989000E580C3E70023E380C0E72B4F0026638801
:1098A000E588ADF80A30ADF808500298FFF772FE6F
:1098B00007EB860307F82600C0F3072201365A702B
:1098C0000A2EC0F30742C0F307609A70D870E6D141
:1098D00023791D44ADB24FF4B473B5FBF3F203FB2F
:1098E0001255D5E7DFF8608000264FF024094FF4C9
:1098F000B477E5886288ADF80E2009FB0653B3FB08
:10990000F7F107FB1133ADF80C300398FFF742FE77
:1099100008EB860308F82600C0F3072201365A70C8
:109920000A2EC0F30742C0F307609A70D870E0D1E6
:10993000237905EB4305ADB2B5FBF7F307FB1355F0
:10994000A6E700BF903A0020173B0020381B0020FC
:109950000022064B114643F8221001320A2AFAD19E
:10996000034B0249186883681B681847173B00209F
:10997000381B002008B54FF4F0120023024819F0FC
:1099800033FD00EAE07008BD60100020054B1B6845
:1099900023B1054B1B7A0370002070476FF0120053
:1099A000704700BF381B0020903A002007B5114BCC
:1099B0001B68D3B1104B186818B183681B6803B1DA
:1099C00098470E4B01221A720022DA8040F2676239
:1099D0000023CDE900230A48002200231AF046FAAA
:1099E00003B05DF804EBFFF7C5BF6FF0120003B0E2
:1099F0005DF804FB381B0020341B0020903A002047
:109A0000800C002008B50E4B1B68ABB10D4B1868DD
:109A100018B183685B6803B1984700F025F90A49DB
:109A200021F013F9094821F0FDFA094B00221A72BE
:109A3000BDE80840FFF79EBF6FF0120008BD00BFF1
:109A4000381B0020341B002028030020800C00203D
:109A5000903A0020054B5B7904331844434203F0ED
:109A6000030300F0030058BF58427047903A0020AB
:109A7000084B1B683BB1032808D8074B00225871DC
:109A8000DA80FFF777BF6FF0120070476FF01500B4
:109A9000704700BF381B0020903A0020034B1B7A10
:109AA0000BB1FFF7AFBFFFF781BF00BF903A0020B7
:109AB00082B083B2B3F5B47F01900CD89DF8063024
:109AC000642B08D89DF80730642B04D8034B18602A
:109AD000002002B070476FF08500FAE7903A00204E
:109AE0000C4A138800EB800003F5B47303EB4003CA
:109AF0004FF4B4719BB2B3FBF1F001FB10339BB296
:109B0000002063F30F00538882B063F31F4002B05C
:109B1000704700BF903A002013B50C4A9378D17873
:109B20008DF807100A2404FB00306428A8BF6420C5
:109B3000138820EAE0708DF80600002063F30F0020
:109B4000BDF8063063F31F4002B010BD903A00200C
:109B500013B50C4AD37891788DF806100A2404FBCB
:109B600000306428A8BF6420138820EAE0708DF8D4
:109B70000700002063F30F00BDF8063063F31F40B9
:109B800002B010BD903A002010B5084B1B6853B1CD
:109B9000FFF7A6FF064C2080C0F30F406080BDE8B1
:109BA0001040FFF7E7BE6FF0120010BD381B002019
:109BB000903A002010B5084B1B6853B1FFF7ACFF7B
:109BC000064C2080C0F30F406080BDE81040FFF7D6
:109BD000D1BE6FF0120010BD381B0020903A00205B
:109BE00010B5084B1B6853B1FFF7B2FF064C20803D
:109BF000C0F30F406080BDE81040FFF7BBBE6FF0C0
:109C0000120010BD381B0020903A00200A4B1B6840
:109C10006BB10A4A1379012B01D100280ADB0344F6
:109C2000DBB2052B28BF05231371FFF7A3BE6FF02E
:109C30001200704700207047381B0020903A002027
:109C400007B5064B0093064906480A234FF44072B5
:109C500019F034FB002003B05DF804FB80BB040066
:109C6000983F00209010002000487047901000207E
:109C70000148FFF7F7B800BF94B5040010B5094CD0
:109C80000A44914200D110BD11F8013B584003092C
:109C90000001E35CC0B2434018091B01205CDBB249
:109CA0005840EEE722D10400014B1B68184700BF63
:109CB0006003002007B50B460021024600910348CF
:109CC00000F02AF903B05DF804FB00BFA99C020074
:109CD00030B587B00025CDE903010446009503A9FE
:109CE0000548059500F018F9DDE904309842B8BF41
:109CF000255407B030BD00BF694504002DE9F04789
:109D0000058B04462807904611D4022905F0070563
:109D100040F0CD8020461AF06FFC78B10138218BDD
:109D2000042811D8DFE800F0C3106D8595000129E3
:109D30000CBF45F0100545F02005258388F31188F8
:109D4000BFF36F8FBDE8F08701F0070AAA4500F066
:109D5000A6800027B9463E46A368002B00F0BD80D0
:109D600041F00801218388F31188BFF36F8FA16848
:109D7000002900F0BB800D68002900F0B780D1F801
:109D80000480334652462046C047002D76D02B68CB
:109D900029461D46F0E701F007035A1F012A1BD888
:109DA000002221F00701062B276889B2C4E90022AE
:109DB00009D13B4603E0628B013262831B68002BB2
:109DC000F9D141F00201218320461AF015FC002848
:109DD0007BD041F0200177E0042B0AD121F007016C
:109DE00089B2218320461AF007FC10B141F020010E
:109DF0002183218B01F0070AAA4550D00027B946DC
:109E0000AAE7236921F0070141F00601062DD3F8E6
:109E1000009021832DD1B9F1000F40D041F008010D
:109E2000218388F31188BFF36F8F3A492046C847D2
:109E300029E021F00701236941F0040189B2042DD2
:109E4000D3F804902183E6D000273E464FF0040A61
:109E500082E721F00701236941F0050189B2052D50
:109E6000D3F808902183D6D000273E464FF0050A4C
:109E700072E700273E464FF0060A6DE72B4687E75C
:109E8000B9F1000FD1D14FF02003EFF3118883F324
:109E90001288BFF36F8F238B23F008032383258B56
:109EA000EA062ED525F01003238305F00705666921
:109EB000218B002EBFF66FAF00232768C4E9003363
:109EC00021F0070141F001012183218B01F0070AF4
:109ED000AA454FF000097FF43FAF002F9BD041F01F
:109EE0000801218388F31188BFF36F8F002FC7D03B
:109EF0003D6839463346524620461AF0A9FB2F46A4
:109F0000F4E7AB067FF51AAF25F02003238305F0B5
:109F10000705FFE67D4604002DE9F04F8DB01D4694
:109F2000531E8246019103934FF00009039B58781A
:109F3000252803F1010419D11E4600204FF0FF38F7
:109F4000023603460290444631780396392954D8A4
:109F50001F2914D8002900F0F08101992520D0474D
:109F600001993078D04709F10209DFE7002800F0B5
:109F7000E4810199D04709F101090394D6E7A1F1E1
:109F80002002192AE9D801A757F822F0F59F02000C
:109F90005B9F02005B9F0200F59F02005B9F020037
:109FA00075A002005B9F02005B9F02005B9F0200A6
:109FB0005B9F0200C1A00200F59F02005B9F0200B0
:109FC000D5A0020081A002005B9F02008FA00200CA
:109FD000AFA00200AFA00200AFA00200AFA002003D
:109FE000AFA00200AFA00200AFA00200AFA002002D
:109FF000AFA0020008460136A6E7582900F0EE801F
:10A00000A1F16302D7B2172FA7D8172AA5D801A7A5
:10A0100057F822F083A20200FBA002005B9F02001F
:10A020005B9F02005B9F0200DBA00200FBA002001E
:10A030005B9F02005B9F0200DBA002005B9F0200AF
:10A040005B9F02005B9F0200B7A102005B9F0200C2
:10A050005B9F020057A202005B9F0200FBA0020070
:10A060005B9F02005B9F0200B7A102005B9F0200A2
:10A07000DBA0020001992520D04709F1010955E72D
:10A08000029A02F0FE0202924FF00008B3E7002CA1
:10A090000DDAB8F1000F0DDA029A002A00F04581BE
:10A0A00024EAE4740A2202FB0414303CA3E7B8F16A
:10A0B000000FF5DB0A2202FB0812A2F130089AE732
:10A0C000B8F1000F55F8042B80F23181002A80F29C
:10A0D00030815442022202928DE7682903D1682B15
:10A0E00006D1482387E76C2902D16C2B00F023812D
:10A0F000002B7FF432AF0B467DE77A2B06D1752912
:10A1000055F8046B14D14FF0000B0CE06C2BF6D01B
:10A110004C2BF4D1073525F007037529D3E9006BE3
:10A1200003F1080506D120283ED1864F013C09E005
:10A130004FEAE67BBBF1000FF5DA7642824F6BEB1C
:10A140004B0B013C0DF12D03059300230493304686
:10A1500059460A220023FDF751FA049B03F1FF3C04
:10A16000CDF810C0DDF814C030320CF8012DCDF858
:10A1700014C0B4465A46BCF10A0F72F100020646FA
:10A180008B46E4D2C3F1010B30330DEB0306B8F17B
:10A19000000FA6F104066DDA029BD9077CD4A8EB68
:10A1A0000B03A4EB0B0413E02B280ABF674F684F87
:10A1B00004F1FF34C6E770290FD155F8042B0023B2
:10A1C000FAB9644E053C6FF004034FF0050B604F85
:10A1D000029A92076FD4A04665E078216C2B03D1D8
:10A1E00055F8042B002308E04C2BF9D1073525F056
:10A1F00007031D465B6855F8082B232825D18806E0
:10A2000021D5554F023C01F06001A1F1390B0DF150
:10A210002D0E002602F00F01092988BF5944303164
:10A220000EF8011D102A4FEA121141EA03714FEA9C
:10A23000131073F1000306F1FF3C08D2C6F1010BC5
:10A2400006F13003A1E7454FDCE7414FDBE7664607
:10A250000A460346DEE755F8046B30461CF026FB41
:10A26000B8F1000F834602DB4045A8BFC346384F14
:10A270004FF00008A8EB0B03002B92DDA4EB0804C1
:10A28000A6E755F8043B8DF81830013C4FF0FF333A
:10A290004FF0010B06AE9AE7A046EBE70293019957
:10A2A0002020D047029BB8F10108F7D524EAE472D8
:10A2B000013C9144A41AB84606E004930292019925
:10A2C000D047029A049B9046424612F8010B0028A0
:10A2D000F3D11A46013A15D5002BACBFC7EB0307E3
:10A2E0007F425B46013B15D5BBF1000FA8BF5F4421
:10A2F0004F442646013E14D5002CA8BF3F1907EB5A
:10A30000080913E60493029201993020D047049B78
:10A31000029ADFE70293019916F8010BD047029BDE
:10A32000E0E701992020D047E4E70122D3E69046F8
:10A3300061E614465FE64C235DE648460DB0BDE895
:10A34000F08F00BF34D1040032D1040036D10400B4
:10A350008BD604003ED1040038D104003BD1040068
:10A3600008B54FF02002EFF3118382F31288BFF398
:10A370006F8F02F0B5F903481AF009F901F07CFE7D
:10A38000FCE700BF44D1040016F012BA1FB5072441
:10A390000294044C0194BDF8184000941EF05BFB3D
:10A3A00004B010BDB60B002010B5084C86B0247860
:10A3B0008DF81740012402940DF117040194BDF8A3
:10A3C000204000941EF047FB06B010BDBD0B0020DE
:10A3D00000B589B064288DF8070019D80E4B1822F3
:10A3E0001870002102A81CF0A3FA0C4B03930DF186
:10A3F0000703049302A901230020ADF8143006F0EE
:10A400008DFA10F1800F08BF002009B05DF804FB41
:10A410006FF01500F9E700BFBD0B002028BC040059
:10A420002DE9F7430F4606460821C06ADFF8509031
:10A430001AF065FC3C68241A80463C6004EA090571
:10A44000AC4203D8002003B0BDE8F08308236A467D
:10A45000214630461AF0C6FB0028F4D16946304642
:10A460001AF057FC40B1BDF80230BDF804203C6042
:10A4700005EA090513441D44A4EB0804E0E700BF06
:10A480000000FFFF2DE9F047044688B000F11407F3
:10A49000384620F032FAA06A8368DB689847E062A9
:10A4A00028B96FF01505284608B0BDE8F087A06A06
:10A4B0008368DB6898470368013B1F2BF1D8A06ACB
:10A4C000216805AA1FF0A7FE0028EAD1A589002D62
:10A4D000E7D0069BB5FBF3F203FB1255002DE0D14C
:10A4E000E389012BDDD9E36A009593F804904FF0DE
:10A4F000FF334FF0FF32384618F052FCE06A082173
:10A500001AF0FDFBA8460646E3891FFA85FA534573
:10A5100008D8E389434523D1384618F0BBFC6FF0D7
:10A520002C05C0E7A1892B04891B13FA81F14A4647
:10A530000823204600911AF09AFB78B1694620461C
:10A540001AF05EFB08F10108009908234A462046EC
:10A550001FFA88F81AF08BFB0028DAD00135D3E710
:10A5600053450BD1009908234A46891B20461AF00F
:10A570007EFB18B9694620461AF042FB6946204620
:10A58000FFF74EFF054618B1384618F083FC8AE7FE
:10A59000009B63604FEA13484FEA0848C4F80880FC
:10A5A000D4E9011399420FD3082301AA20461AF0D7
:10A5B00019FB05460028E7D101AB13F8012B9145A3
:10A5C00033D10135082DF8D163681B0C1B04694693
:10A5D000204600931AF014FBA38900994A462046AE
:10A5E0001AF045FB051ECFDB636876D006EB030847
:10A5F0004FF6FF79A389CDF800801FFA88F29B1BE4
:10A600009A422ED300236168002B43D0090C090421
:10A610000091204669461AF0F3FA009920461AF094
:10A620004BFB0546002D74D0AEE701A920461AF079
:10A6300070FB626810B9921B6260B1E7BDF8085008
:10A64000BDF80610E06AC4F8088029441AF057FBE8
:10A6500040449042A060EED1002DECD06FF01C057C
:10A6600068E0082303AA414620461AF0BBFA0546D3
:10A67000002889D103A920461AF04BFB30B1BDF860
:10A680000C304B4502D1BDF810300BB1B044B1E7EE
:10A690000123B8E720461AF00FFB054600287FF497
:10A6A00073AF6368264AA18913400B44A3EB4603AA
:10A6B00063601340A36020461AF00DFCB1E75B1AFB
:10A6C0004A4620461AF0D3FA051EFFF65DAF08D0C1
:10A6D000E26AA36812681344A360D4E901318B4293
:10A6E000EDD86168A38901EB46029A429AD1DFF85E
:10A6F0005080A26801EA08039A4293D020461AF0DB
:10A70000DBFA054600287FF43FAF636803EA0803DD
:10A71000A360A389A288A3EB46039A4206D03846D9
:10A7200018F0B8FB012323740025BCE620461AF07C
:10A73000BDFB0546384618F0ADFB002DF2D0B2E661
:10A740000000FFFF2DE9F04F1D46037C89B0044651
:10A7500089469046002B00F0BD80C26A0821104651
:10A760001AF0CDFA2946824610461AF0C8FAA38993
:10A77000A3EB8A039D42074600F2AF801DB1B8F1FA
:10A78000000F00F0AA806368039304AA03A920467F
:10A79000DDF80CB01AF0F5FA0646002865D1BDF8D0
:10A7A00010304B4505D06268039B9A42EDD1E5B964
:10A7B0005BE004A920461AF0ACFA0028F3D0BDF8FB
:10A7C0001200BDF8143075B19D420ED14FEA1B4105
:10A7D000090401442B46424620461AF01EFA00287E
:10A7E00003DC064641E0002B3FD0002F41D104F1AD
:10A7F000140301934FF0FF324FF0FF3304F11400C4
:10A8000018F0CEFADFF8D8B0E3899E425FD0D4E9E1
:10A810000123F9188A422FD3ADF81A3006A8FF2376
:10A820008DF81E30ADF81890ADF81C501AF05EFA95
:10A83000A1682B46424620461AF0EDFA2946824688
:10A84000E06A1AF05CFAA2680244A260BAF1000F52
:10A8500007D106A920461AF018FB002814BF82462B
:10A86000AA46019818F016FB5646304609B0BDE8D6
:10A87000F08F5744BFB2BAE70821E06A1AF03FFAF6
:10A880004FF6FF73ADF818300023ADF81C301318E5
:10A89000ADF81A30A38902EA0B021A44101A60605C
:10A8A00006A81AF023FA06A920461AF0EEFA211D8E
:10A8B00020461AF0A5F9636803EA0B03A36020465B
:10A8C0001AF009FB82460028CBD101369CE76FF0D5
:10A8D0001B0AC6E76FF00C06C7E76FF01506C4E762
:10A8E0000000FFFFF0B40C4B0C4E5F6A0C4BB34200
:10A8F00003D36FF08500F0BC70475D68BD4209D39B
:10A900001C693CB195F802C00579AC4502D12346DB
:10A91000F0BC18472433EAE73C1B0020890F0020D5
:10A92000890F00202DE9F047134CDFF85080DFF845
:10A93000509005460E461746444503D36FF08500F8
:10A94000BDE8F0876268D9F824309A4212D3A3692F
:10A9500083B190782979884205D13A463146284614
:10A96000BDE8F04718475279012A03D13A463146EB
:10A97000284698472434DFE7890F0020890F0020FC
:10A980003C1B00202DE9F0410B4CDFF830800546E0
:10A990000E461746444502D36FF0850009E063690F
:10A9A0000BB92434F6E73A46314628469847002842
:10A9B000F7D1BDE8F08100BF890F0020890F00208A
:10A9C00007B583788DF800300379427943EA022392
:10A9D000ADF80230C378684603F003038DF8043005
:10A9E00013F052FF10F1780F04D018B1002003B01B
:10A9F0005DF804FB9DF8000013F0CEFF10F1780F16
:10AA000001D00028F2D1024B012083F8B900EEE713
:10AA10003C1B00200248082200211BF089BF00BF18
:10AA2000F71B002070B50B4B0B4CA34201D3002049
:10AA300070BD196A1E7F00220439D5B2AE4201D81A
:10AA40002433F2E7013211F832508542F5D101206A
:10AA5000EEE700BF890F0020890F002008B50948E4
:10AA60000378C3F341130A3350F823303BB100F1AC
:10AA7000080200F110019847C043C00F08BD1846F6
:10AA8000FCE700BF3C1B002004282DE9F047DFF85D
:10AA90008C8004460E4613D1FFF7BCFF204B93F881
:10AAA000B930ABB100F0F2FC1E4D454526D2D5F8C9
:10AAB000209000272A7FFBB29A4217D82435F4E76A
:10AAC000052810D1164B93F8B9300BB100F0DEFC1D
:10AAD000144D454517D3124B1B6AE3B1314620464E
:10AAE000BDE8F04718470128F2D1D7E709EBC303C7
:10AAF0000137187913F07AFF0028DBDA084B0022BF
:10AB000083F8B920E4E7EB681BB1324621462846BA
:10AB100098472435DDE7BDE8F08700BF890F0020A6
:10AB20003C1B0020890F002073B5C4B263060D469C
:10AB30008DF8074007D02046FFF774FF78B10D4B22
:10AB400093F8BA0058B10B4E204655B113F0C0FE31
:10AB5000F3691BB10DF1070108209847012002B0ED
:10AB600070BD13F0DDFEF369002BF7D00DF1070186
:10AB70000920F2E73C1B00202DE9F047A44EB36901
:10AB800004460F461546FBB9237803F01F03012B3B
:10AB900000F09D80022B00F0078133BB94F9000088
:10ABA0002A686178002834DA062912D008292BD0C7
:10ABB000D9B901231370517096F8C3305B0043F08C
:10ABC0000103137002232CE198470028DCD10020F8
:10ABD0000DE06288100A011F0129844605D9072863
:10ABE00003D8716AD2B20C781CB96FF01500BDE8B9
:10ABF000F0874E78664503D19A4200F00D8101330B
:10AC00002144F0E70B780CE196F8BA301370012379
:10AC100007E101390829E8D801A353F821F000BF62
:10AC2000B9AC0200EBAB0200C7AC0200EBAB020018
:10AC300045AC0200EBAB0200EBAB0200EBAB020059
:10AC400051AC0200A07813F00DFE0028BFD0CCE775
:10AC50006388756A63BBFFF7DDFE638886F8BA30E8
:10AC6000F369002BB3D06B4903209847AFE76B78AB
:10AC7000042B10D0052B11D0022B04D16F796388DF
:10AC8000BB4208BF01202B781D442B78002BEED14E
:10AC90000028AAD0DFE795F80380F4E76388BB4279
:10ACA000F1D1B8F1000FEED12846FFF789FEEAE7AF
:10ACB000FF270020B846E8E76388012B95D10023E1
:10ACC00086F8C33083E76388012B8ED1F8E796F8C6
:10ACD000BA30D5F800C0002B87D0756AA38894F8E5
:10ACE00004E02A46107800283FF47FAF517802290B
:10ACF00004D192F80480F04500F295800244F1E717
:10AD00008CF800208CF80120396060E7154496E04B
:10AD10000B2A7FF46AAF00274FF0FF08C146BA46FE
:10AD200006E06B78042B0FD0052B21D02B781D4427
:10AD30002B78002BF5D1F36913B1514607209847C2
:10AD4000002F7FF444AF50E795F80280A38895F870
:10AD500003909845EAD163889945E7D1B8F1070F88
:10AD60001FD806EB0803AA4683F8BB900127DDE74E
:10AD7000A3884345DAD1A3784B450DD0AF78384648
:10AD800000F066FB384613F031FE10F1780FEDD07D
:10AD9000B0FA80F77F09C9E72846FFF711FE07469A
:10ADA000C4E7AA460027C1E794F900206378002A87
:10ADB00018DA002B7FF419AF24792D6863060AD0C6
:10ADC0002046FFF72FFE00283FF40FAF96F8BA3069
:10ADD000002B3FF40AAF2946204613F0C1FD0023A3
:10ADE0006B70EFE6012B08D0032B7FF4FEAE638877
:10ADF000002B7FF4FAAE012103E0618800297FF483
:10AE0000F4AEA088FFF790FE00287FF4E0AEECE6F9
:10AE10003C1B0020F61B0020022829607FF4F2AEC4
:10AE20004B883B60D3E694F9000062780028BFF6B7
:10AE30006FAF002A3FF464AF0A2A7FF4D6AE2A78B7
:10AE4000002A3FF4D2AE697804297FF45FAFA97875
:10AE50008B427FF45BAF072B96BF9B19002393F8BF
:10AE6000BB308CF80030D2E613B5134C237DCBB940
:10AE7000E268A168019201AB80201AF064F9019A9E
:10AE8000A3681344A360E3689B1AE36043B93AB133
:10AE90002369E2889A4203DD9B0601D101232375D1
:10AEA00002B010BD00231A4619468020237502B057
:10AEB000BDE8104013F0C0BD3C1B002030B585B08C
:10AEC000002302460D460193002858D1002935D1B0
:10AED00008220B460DEB02011EF0ECFC002804DA00
:10AEE000802013F0F5FC05B030BD2A4C029A226098
:10AEF000039A626004F13802A2609DF90820BDF84F
:10AF00000E302575002AC4E903550ADB802B04D9CD
:10AF1000802013F0DDFC0020E3E713B1C4E9033324
:10AF2000E1E7FFF79BFD0028DAD0E28823699A4227
:10AF3000D4BFE260E360FFF797FFD4E7154CD4E994
:10AF40000215002D01AB04DC1EF0B4FC0028CADAA7
:10AF5000C6E72A461EF0AEFC0028D9DB019AA3689A
:10AF60001344A360E3689B1AE360002BBBD104F198
:10AF70003803A360FFF772FD0028DCD1B0E780281A
:10AF8000B1D1044BDA68002AD5D11B7D002BD2D178
:10AF9000A9E700BF3C1B0020054B064A9A62064AFF
:10AFA000DA62064A1A63064A58629A6100207047BC
:10AFB0003C1B002079AB0200E5A8020085A9020035
:10AFC00025A9020010B5084B93F8B84034B900F039
:10AFD000CBF830B1FFF7E0FF204610BD6FF07700EF
:10AFE000FBE74FF0FF30F8E73C1B00202DE9F34171
:10AFF0000446354D35484FF0FF324FF0FF3317F020
:10B00000CFFE95F8B860002E5BD131482C62E86124
:10B0100013F02CFE13F0E8FB041E36DB00F05AFAA6
:10B02000041E32DB40236846ADF802308DF8046020
:10B030008DF8006013F028FC041E26DB802768468C
:10B040008DF8007013F020FC041E1EDB21493046F1
:10B0500013F0F8FD041E18DB1E49384613F0F2FD0C
:10B06000041E12DB1C4CDFF87480444514D300200E
:10B0700013F092FC041E08DB802013F08DFC041EEC
:10B0800003DB012385F8B8300024104817F002FFD5
:10B09000204602B0BDE8F081276A0026227FF3B285
:10B0A0009A4201D82434E0E707EBC30257F8331083
:10B0B000107913F0C7FD01360028EFD04FF0FF34B0
:10B0C000E3E76FF07704E0E73C1B0020500D002021
:10B0D00089AA0200BDAE0200890F0020890F00205E
:10B0E00030B51F4B8BB005AA03F1100518685968DD
:10B0F000144603C40833AB422246F7D11B782370B1
:10B100001022002101A81BF013FC12220021154877
:10B110001BF00EFC102101A81EF07CFE00281BDD98
:10B120000828B8BF0820093801AB0E491A180020BA
:10B1300012F8013F0AAC04EB131403F00F03283399
:10B140006B44013014F8144C13F8143C0C700828AC
:10B150004B7001F10201EBD102480BB030BD00BFD2
:10B1600079D104003F3B00202DE9F04F644C85B0BD
:10B1700000264FF0011BB1463546B24623782BB965
:10B18000604B02349C42F3D15D481CE06378052B90
:10B1900005D8DFE803F07B04037B0725A24623786C
:10B1A0001C44EBE7E378002BF9D1A37873B109F1E4
:10B1B00001095FFA89F9F2E76A68944209D02435F7
:10B1C0009D42F9D3002005B0BDE8F08F4E4D4F4BA6
:10B1D000F6E7AB68002BEAD0494620469847E6E7F9
:10B1E000002DEFD0002301212A7F9342EAD22A6A60
:10B1F000A77802EBC3021079874201D00133F3E74D
:10B200000127E07800F003008DF80C00207994F815
:10B2100005C040EA0C20ADF80A0094F902000028AD
:10B220005FFA87F827DA07F1100001FA00F010EA58
:10B230000B0F27D148F080008DF8080002A8CDE957
:10B2400000321EF01FFBDDE900320121D0B99DF86C
:10B250000830A37013F0800F18BF08F110081371A5
:10B2600018BF5FFA88F80B460CBFBB4001FA08F321
:10B270004BEA030B93E701FA07F010EA0B0F01D139
:10B280004046D9E70137102FBBD1B7E7032E1DD1B8
:10B29000FFF726FF074668B11BF008FB804648B160
:10B2A0001B481BF003FB804504D142463946A01CD5
:10B2B0001BF033FB23786FF00201E218091B04EB4B
:10B2C0005303D14213D50136F6B268E7002EF1D10F
:10B2D000BAF1000F3FF476AFA4EB0A038AF802300C
:10B2E000C3F307238AF803308AF80490EBE74FF0A2
:10B2F000000002F8010C13F8010902F8020DE0E762
:10B300002C0F0020890F0020890F0020890F0020BA
:10B3100079D1040010B5094B00211A461C788442EB
:10B3200005D15C681CB1482303FB012010BD01312D
:10B33000042903F14803F1D10020F7E7001C0020A5
:10B340002DE9F34150F8303C10F8346C10330446CA
:10B3500010D1036950F8282C99073CD502BB13F093
:10B36000040304D11A461946304619F0ECFE0023B6
:10B3700044F8303C54F8303C10330ED054F8205C84
:10B380005DB154F8247C54F81C8C1FF09CFA002802
:10B390004CD02E4821461FF058FC02B0BDE8F08189
:10B3A00050F82C1C01AB304619F0CDFE10B16FF0F7
:10B3B0001503DDE7019A54F82C3C134444F82C3C67
:10B3C00054F8283C9B1A44F8283C54F8243C134475
:10B3D00044F8243CCEE750F82C1C01AB304613F067
:10B3E000A7FB0028E3D1019D54F82C3C2B4444F8E2
:10B3F0002C3C54F8283C5B1B44F8283C54F8243C73
:10B400002B4444F8243C002DB1D0304613F034FCDA
:10B41000B5FBF0F303FB1055002DA8D154F8283CE0
:10B42000002BA4D0304613F0CBFBA3E744F8200C4C
:10B43000A4F1180017F09EFD54F8303C8C33ACD0CA
:10B44000424639463046A847A7E700BF781A002091
:10B4500010B54FF02003EFF3118483F31288BFF38C
:10B460006F8FFFF757FF50B14368103307D16FF06C
:10B470008B03436000F1340103481FF0E6FB84F3C3
:10B480001188BFF36F8F10BD781A002070B50F4C74
:10B4900004254FF02003EFF3118683F31288BFF3E6
:10B4A0006F8F6368103307D16FF08B0308486360B8
:10B4B00004F134011FF0C9FB86F31188BFF36F8FCD
:10B4C000013D04F14804E4D170BD00BF001C002020
:10B4D000781A002070B50A4C0A4E002531462046E5
:10B4E0001FF086FB0122A4F11800114601351FF060
:10B4F000FDFA042D04F14804F0D1002070BD00BF16
:10B50000341C002041B3020070B5114B1C680D467D
:10B51000DCB1104B196800238B4202DB6FF0010095
:10B5200070BD224612F8106B864202D001331446D9
:10B53000F2E7E06810B96FF01200F1E71FF0DDF8F4
:10B540000028F8D02C600020EAE76FF00C00E7E755
:10B550009C03002064BC040070B588B005460C460E
:10B56000C0B269461646FFF7CFFF00281BDB0098E4
:10B57000C8B143680293836822680195CDE9033618
:10B580000023CDE906230593C56819F0F4FD6DB1DC
:10B590002846084901AA1EF042FE079808B9059BF3
:10B5A000236008B070BD6FF01500FAE76FF012006D
:10B5B000F7E700BF795104002DE9F0410F4B1C68FB
:10B5C00005460E461746ACB14FF0FF324FF0FF3341
:10B5D0000B4817F0E5FB63683246D3F8088029462C
:10B5E0003B462046C0470446054817F053FC20461A
:10B5F000BDE8F0816FF00104F9E700BF201D0020D5
:10B600003C0D002000230360044B5A6812B9C3E9C3
:10B610000000704710605860704700BF241D002074
:10B62000014B1860704700BF201D002030B585B069
:10B6300000230546CDE9023301904FF0FF330C485B
:10B640004FF0FF3217F0ACFB0A4B1C684CB9284690
:10B6500000F0CEF80446064817F01CFC204605B062
:10B6600030BD636820461B6801A998472468EDE750
:10B670003C0D0020241D00201FB5CDE901010392DF
:10B680004FF0FF330A484FF0FF3217F089FB094BA8
:10B690001C682CB9064817F0FDFB204604B010BD0D
:10B6A000636820461B6801A998472468F1E700BF3A
:10B6B0003C0D0020241D0020024B0022C3E9002283
:10B6C000704700BF241D0020024B0022C3E9002266
:10B6D000FFF7F2BF2C1D002070B51B4C1B4E05461A
:10B6E000B44212D31A4E1B484FF0FF324FF0FF33D3
:10B6F00017F056FB34687CB1286854F8141C143CCD
:10B700001BF0DBF8C8B16469F5E7216828681BF015
:10B71000D4F8A8B11434E3E700226A61726805F135
:10B7200014033AB9C6E9003300240A4817F0B2FB03
:10B73000204670BD13607360F6E76FF01004F4E705
:10B740006FF01004F4E700BF80B80400F8B80400FC
:10B750002C1D00203C0D00202DE9F74307460C4628
:10B7600009B100230B601F4DDFF87C9000264D458A
:10B770000FD31E4B1D6885B355F8148C01AA4146A2
:10B780003846143D19F01EFD10B3D6B914BB2E4631
:10B790001EE0D5F8008001AA4146384619F012FD96
:10B7A00050B116B954B92E4606E031680022404621
:10B7B00019F008FD0028F5D11435D8E7019B236066
:10B7C000F1E731680022404619F0FCFC0028DDD189
:10B7D0006D69D0E7019B2360D9E7304603B0BDE82F
:10B7E000F08300BF80B80400F8B804002C1D0020CE
:10B7F000F8B5184C184F06460025BC4208D3174B25
:10B800001C682CB3143CB6B9E368E3B96469F8E783
:10B810002EB9E3685BB9284614340546EDE7206885
:10B820000022314619F0CEFC0028F2D1F3E7984708
:10B83000002DF0D1F0E720680022314619F0C2FC5B
:10B840000028E1D1E2E79847002D08BF0546DDE773
:10B850002846F8BD80B80400F8B804002C1D00206C
:10B8600010B5074C23780BB1002010BDFFF72CFF5B
:10B8700000F066F80028F8D101232370F4E700BF38
:10B88000513B00202DE9F047048FDFF8B0A00134D0
:10B8900098B080468946A4B200F10806651EADB294
:10B8A000B5F5004F47D04A2305AA2946304619F07E
:10B8B00043FC04F57F543F34A4B2074621460123DC
:10B8C0000DF10B02304619F037FC002F014603DC66
:10B8D000002803DC2C46E1E7002816DCB8F83830F5
:10B8E000AB4209D142466B1E22F8383F4FF400416B
:10B8F00002233046FEF726FF2946304619F0B8FBF2
:10B900002146304619F0B4FBE4E707F160030DEB84
:10B910000307002307F84C3C5246CDF8009003ABD8
:10B9200005A80396ADF8104019F082FC0028D1D08C
:10B9300018B0BDE8F0870020FAE700BF9F5204006E
:10B940007FB50123694602200193FFF7DDFD044620
:10B95000002834D102AA01A90220FFF7FDFD10F151
:10B96000130F04462BD038B10C3405D0404080F37F
:10B9700011884FF0040002DF0399B1F5803F23D214
:10B98000009A002394681846084484421AD301336D
:10B99000082BF9D10E4DA982EB825368AB60284683
:10B9A000D368EB6319F015FD044640B9094E6E608B
:10B9B0002846FFF727FE28466E60FFF731FE204637
:10B9C00004B070BD9BB2E5E76FF02004F7E700BF5D
:10B9D000341D0020A00300202DE9F84305464FF058
:10B9E0002003EFF3118683F31288BFF36F8F0E4BA2
:10B9F0000E4F1C68DFF838804FF00C092CB986F325
:10BA00001188BFF36F8FBDE8F883D4E90123002DBF
:10BA100018BF13462BB198F8142009FB02F2B85C4A
:10BA200098472468EAE700BF901D0020841D00208D
:10BA3000503A002070B5084D084E2C68013C002C8F
:10BA400002DA00232B6070BD56F82400012100F0BB
:10BA500095F9013CF3E700BF741D0020040C0020A1
:10BA600070B5194B1C7DBFF35B8F04F01F030122DF
:10BA70009A40164B610903EB8103D04353E8001F42
:10BA800001EA000543E80056002EF7D1BFF35B8FB3
:10BA90000A4213D00E4B0F4D8BB10C236343EA18AF
:10BAA000E85C51781AF066FF0020FFF795FF0C2341
:10BAB0005C432A1900232B51C2E9013370BD83F383
:10BAC0001188BFF36F8FEFE7503A0020981D0020D8
:10BAD00075690400841D002010B54FF02003EFF3BA
:10BAE000118483F31288BFF36F8F064B0C2202FB85
:10BAF000003307C983E8070084F31188BFF36F8F11
:10BB0000012010BD781D00202DE9F743684B064643
:10BB10001D7D4FF02003EFF3118883F31288BFF3EC
:10BB20006F8F0C24634B644F6C431A19195D002905
:10BB30007AD007CA07EB040C8CE8070000221A55DC
:10BB400088F31188BFF36F8F0C236B43FA18FB5CEB
:10BB5000002B00F0A980731C10D0D2F808C0574CFD
:10BB6000574A4FF400400021ECFB004100232046DF
:10BB7000FBF744FD0121301A1FF00CFA0C236B4334
:10BB8000504EFB5C012B1AD0BFF35B8F56E8004F81
:10BB9000013C46E80043002BF8D1BFF35B8F74B93A
:10BBA00001A816F023FEDFF820911C23C9F80040FD
:10BBB0005843019C1C380444019B9C423FD217F01F
:10BBC00027FE0120FFF708FFBFF35B8F3F4B6A0999
:10BBD00003EB820305F01F0101228A4053E8000FA6
:10BBE000104343E800010029F8D1BFF35B8F384BC5
:10BBF00033B10C236B43FA18F85C51781AF0AEFE9F
:10BC0000BFF35B8F56E8003F5A1C46E8002100292D
:10BC1000F8D1BFF35B8F0BB9FFF70CFFFFF720FFE5
:10BC200017F00AFE012040E00146284600F054F8D3
:10BC3000002885D007C83C4484E8070080E72046F8
:10BC400019F0E8FBE8B9204619F0F8FBC8B920461E
:10BC500019F0EAFB8046A0B90146204600F08EF8B4
:10BC600020F0200378330CD010F1860F09D0002883
:10BC700009DBD9F80030174A42F823400133C9F8EC
:10BC800000301C3C98E7FFF7D5FE0C236B4307F808
:10BC90000380BFF35B8F56E8003F013346E8003274
:10BCA000002AF8D1BFF35B8F002003B0BDE8F0831A
:10BCB000503A0020781D0020841D00203F420F00D4
:10BCC00040420F00B4030020741D0020981D002086
:10BCD0005D690400040C00202DE9F04F85B00E468C
:10BCE00003A900F043F81E4B039DD3F800A0DFF832
:10BCF0007480431E1BB203EB4303044605EB83052C
:10BD00004FF400474FF0000B24B9A146484605B058
:10BD1000BDE8F08F6868144AC4465946E0FB07C185
:10BD200000236046FBF76AFC0190A8680E4AC446EF
:10BD30005946E0FB07C100236046FBF75FFCBAF100
:10BD4000FF3FA94601D0824505D9731CDED0019B77
:10BD50001844B042DAD9013CA4B20C3DD4E700BF8C
:10BD6000B80300203F420F0040420F0008B9024BC9
:10BD70000B600020704700BFA8BC040070B5846948
:10BD800003460D46002C3AD019F058FB002839D153
:10BD90002148227A465CB24237D02048405C90422B
:10BDA00036D1E26818469047002815DA022D11D0E6
:10BDB000032D10D110F1860F0CD0BFF35B8F231D24
:10BDC00053E8001F41F0020143E80012002AF7D1B6
:10BDD000BFF35B8F267270BD022D267201D000204A
:10BDE000F9E70434BFF35B8F54E8003F23F002030C
:10BDF00044E80032002AF7D1BFF35B8FEFE76FF022
:10BE00005700E8E74FF0FF30E5E76FF07700E2E733
:10BE10006FF08500DFE700BF8ED104008AD10400F7
:10BE2000014B1868704700BFBC030020F0B5082222
:10BE300089B019F0C3FCCB6A03930B6B04934B6B73
:10BE400005938B6B0693CB6B079313466A460C46A0
:10BE50000646002711461046CDE90177009719F0F4
:10BE6000BBFB31460546304619F0B6FB216B03910A
:10BE7000616B0491A16B0591E16B0544CDE9061757
:10BE80001046114619F0A8FB31460544304619F01A
:10BE9000A3FB0544206A0090606A0190A06A0290AA
:10BEA000A06B0690E06B07903046CDE904770397CE
:10BEB00019F092FB0544606A0090A06AD4F838C07B
:10BEC0000190E06A0290CDF810C0606BD4F83CC0DD
:10BED0000390CDE905C0206A0790304619F07CFB3D
:10BEE0000544E06A0090206B0190606B0290206A2C
:10BEF0000690A06A07903046CDE90477039719F0C1
:10BF000090FC236B0093636B0193A36B0293E36B31
:10BF10000393636A0693E36A07932D1A0823304656
:10BF200019F07FFC636B0093A36B0193E36B0293A7
:10BF3000236A0393636A0493A36ACDE90537236BED
:10BF400007932D1A0823304619F06BFCA36B00935E
:10BF5000E36BCDE90137636A0393A36A0493E36A51
:10BF60000593636B07932D1A0823304619F059FC8B
:10BF70002D1A10D40D4C35B908223146204619F03F
:10BF800029FC01280FD0082322463146304619F0FB
:10BF900048FC2D1AEFE7054A08233146304619F0D0
:10BFA0001BFB2D18F8D409B0F0BD00BFACBC0400D9
:10BFB0000449431E0F3013F8012F8A5C1A70834224
:10BFC000F9D1704792D10400F0B5264E07460C46D1
:10BFD0000FCE8DB001AD0FC50FCE0FC596E807008F
:10BFE00085E807003846002F38D0002C38D0381F9D
:10BFF0002146024610344B780D781B0443EA056352
:10C00000CD782B438D78043143EA05238C4242F8E6
:10C01000043FF0D1144C04218A07036916D1C3F3FD
:10C020000742A55C1A0EA25C42EA0562C3F307252B
:10C03000DBB2655DE35C42EA054242EA032221F09D
:10C04000030330336B4453F82C3C534050F8042F17
:10C05000013153402C290361DED101200DB0F0BD28
:10C060002046FBE714B9040092D1040001491022D4
:10C070000A60704710ED00E072B6404080F311880E
:10C08000BFF36F8FBFF34F8F30BF62B6BFF36F8FB9
:10C09000704700BF72B6494081F3118820BF80F31A
:10C0A000118862B6704700BF40B2002807DB044A1F
:10C0B0004109012300F01F00834042F821307047FE
:10C0C00000E100E040B200280CDB4309064900F023
:10C0D0001F0020330122824041F82320BFF34F8FFD
:10C0E000BFF36F8F704700BF00E100E0054B4209CE
:10C0F00000F01F0053F82220012303FA00F0104043
:10C10000704700BF00E100E040B20028A8BF00F186
:10C11000604001F10101B8BF064B4FEA4111ACBFCD
:10C1200000F5614000F00F00C9B2B4BF195480F8A7
:10C130000013704714ED00E008B572B6044B9A691D
:10C140001AB100229A611EF0C9FB62B608BD00BF99
:10C15000503A002030BFFFF7FDBF00BF0F4A08B5BF
:10C160000F4B22F07F029A60BFF34F8FBFF36F8FA8
:10C17000D3F8882022F47002C3F88820EFF31483E8
:10C1800023F0040383F31488BFF36F8F16F086FB4C
:10C1900017F0A8FC00F09CF916F0C0FB007002003C
:10C1A00000ED00E0094A0A4993680968D96709491E
:10C1B00098674B6843F080534B60002383F31188EA
:10C1C000BFF36F8F9368D86F704700BF503A00205D
:10C1D00050CF040000ED00E00F498A684FF03000B6
:10C1E0001044EFF3098C80E8F01F202080F31288C0
:10C1F000BFF36F8F094F4FF00066CA698A603E60D7
:10C20000906F0023936780F3118802F1300090E86B
:10C21000F01F8CF309887047503A002004ED00E0CD
:10C220001EF0040F0CBFEFF30880EFF30980816963
:10C2300011F8021C0229FFD001B51AF016FA01BD4F
:10C2400042F8203C009B42F81C3C0A49019B42F802
:10C25000183C029B42F8143C21F001014FF080731E
:10C2600042F8043C42F8081C0023203A0265836728
:10C27000704700BFF1470400074B9860104681F3F8
:10C280000988002163B681F31188BFF36F8F002204
:10C29000002318F0ADFA00BF503A002001B572B685
:10C2A0000B4A906900281EBF002191611EF016FB09
:10C2B00062B6EFF30580A0F110004FEAC000054917
:10C2C000014409C99847BDE80140034908470000F7
:10C2D000503A00203CB60400DDC20200044B9968CD
:10C2E000D869884203D003494FF080520A607047F2
:10C2F000503A002004ED00E00D4B9A6A9A6A9A6A5F
:10C30000920508D59A6B9A6A120404D518B19A6AF4
:10C3100022F400429A629A6A9A6AD205044A58BF85
:10C320009B6A936A002043F47F43936208707047CE
:10C3300000ED00E0114B9A6A9A6A9A6A920708D552
:10C340005A6B9A6A120604D518B19A6A22F08002D2
:10C350009A629A6A9A6A9A6AD00658BF9B6A074B91
:10C360009A6A920642BF5A6A22F400525A629A6A44
:10C37000002042F0FF029A620870704700ED00E072
:10C3800070B5494B5B688AB00646C3F308030025C5
:10C3900085F31188BFF36F8F02F07F40B0F17F4FBC
:10C3A00011D102F00C0008280DD010074CBF0E462A
:10C3B00001250022033B8DF80720032B4CD8DFE832
:10C3C00003F00464686C2E46F3E7374BDA6A910792
:10C3D00042D4DA6A002A3FDBDA6A52003CD55A6955
:10C3E000B16942F480725A61BFF34F8FBFF36F8F10
:10C3F0005A6931F8021C22F480725A61BFF34F8FE0
:10C40000BFF36F8F4DF60272914208D09A6AD2B292
:10C410003AB10DF107010120FFF78CFF0AE0346803
:10C420001BE09A6A12F47F4F06D00DF1070101203C
:10C43000FFF762FF044610E09A6AB2F5803F0BD323
:10C440009A6A9A6A9A6A9A6A9A6A9A6A9A6A6FEA77
:10C4500002426FEA12429A6200249DF8073093B9B3
:10C460002022314602A81AF058FA099BBDB1C3F345
:10C47000080222B96FEA53236FEA4323099302A902
:10C4800020461AF0F0F80AB070BD0DF10701002047
:10C49000C2E70DF107010020CAE7034BD0E723F400
:10C4A000FF7323F00103E9E700ED00E0024A53695E
:10C4B00043F010035361704700ED00E0EFF3088094
:10C4C000EFF3098101B57246FFF75AFF01BD00BFC6
:10C4D000044800232021C2180133302B82F80013B6
:10C4E000F9D1704700E100E0FDF74EFF202080F316
:10C4F000118808484FF40061401880F30988EFF371
:10C5000014800221084380F31488BFF36F8FFFF774
:10C5100025FE0000F0590020084B9B6883420BD198
:10C52000EFF3058343B1064B5A6842F080525A60DC
:10C530005A6A22F400425A6217F062BA503A002056
:10C5400000ED00E0024B034A0348012100F060B80F
:10C55000000004200000002058BD0400F0B5204E6B
:10C5600000258D4239DA446874B353B104F1FF3CBD
:10C5700014EA0C0F2FD11F2C2DD907681CEA070FC6
:10C5800029D1202C0768D0F808C05FFA82FE1ED996
:10C59000B4F1004F1DD8013CB4FA84F4C4F11F0477
:10C5A0006400BEF1070F4CEA040C14D827F01F04F6
:10C5B000144344F01004C6F89820C6F89C404CF090
:10C5C0000104C6F8A040013201350C30C9E7082447
:10C5D000E7E73E24E5E76FF015021046F0BD00BF27
:10C5E00000ED00E0044B0522C3F89420BFF34F8F09
:10C5F000BFF36F8F704700BF00ED00E0BFF35F8FA8
:10C60000024B0022C3F89420704700BF00ED00E009
:10C6100010B5034C01232278FFF7A0FF207010BD56
:10C62000523B002014490868082810B521D8FFF7AC
:10C63000E5FF124C49680022904201F10C0105D13E
:10C640000F4B1870FFF7CEFF002010BDC4F89820E4
:10C6500051F80C3C23F01F03134343F01003C4F8BC
:10C660009C3051F8043C43F00103C4F8A03001327F
:10C67000E2E74FF0FF30E8E764BD040000ED00E0C2
:10C68000523B00200CB410B586B009B90DF10B0077
:10C690000024CDE9040109AB089A009404A90548D7
:10C6A0000393FDF739FC049B1C7006B0BDE81040F5
:10C6B00002B07047436904004FF02002EFF311838A
:10C6C00082F31288BFF36F8F044A0121C2F840152C
:10C6D00083F31188BFF36F8F0020704700E00140A3
:10C6E0004FF08043C0B2C3F81C05BFF34F8F05491C
:10C6F000054BCA6802F4E0621343CB60BFF34F8F6F
:10C7000000BFFDE700ED00E00400FA0520B1034B97
:10C71000800143F001031847704700BF90B904003F
:10C72000F8B5594EBFF35B8F3468BFF35B8F14F0DD
:10C73000010450D0554F564C564D57483A46214665
:10C7400018F09EFEE0B32022294620461AF0D5F8C4
:10C750000028F2D000274FF0FF324FF0FF330120C6
:10C7600000F070FA00F108050221044628461DF089
:10C770002FF83E23037042234370012128461DF009
:10C7800027F808230370412128461DF021F80546AB
:10C7900000F8017BB7B1402200211AF0C9F8BFF3BD
:10C7A0005B8F56E8003F23F0010346E80032002A81
:10C7B000F7D1BFF35B8F2046BDE8F84000F092BE92
:10C7C0001F27C8E734491AF025F9203105F1210067
:10C7D0001AF020F9E3E7BFF35B8F3368BFF35B8F99
:10C7E0009B0750D529492C4819F008FD002811DB7A
:10C7F000BFF35B8F264933682648BFF35B8F13F086
:10C80000040F01F12002214B18BF0146104618F019
:10C8100086FE04464FF0FF324FF0FF33012000F058
:10C8200011FA00F108070221054638461CF0D0FF36
:10C830003E23037022234370012138461CF0C8FFB9
:10C8400009230370212138461CF0C2FF0346013042
:10C850009CB91F221A70FF2120221AF069F8BFF339
:10C860005B8F56E8003F23F0020346E80032002ABF
:10C87000F7D1BFF35B8F28469EE7002206491A7066
:10C880001AF0C8F8EBE7F8BD9C1D002084BD040039
:10C89000533B0020BBD20400733B002070B5214CF9
:10C8A000BFF35B8F2368BFF35B8FDA0706460D4645
:10C8B00001D50C2070BD012931D8BFF35B8F54E83E
:10C8C000003F43F0020244E800210029F7D1BFF302
:10C8D0005B8F9B07EDD4144831461AF09BF8134840
:10C8E00006F120011AF096F8BFF35B8F75B154E89A
:10C8F000003F43F0040344E80032002AF7D1BFF3BD
:10C900005B8F0B4800F062F90020D3E754E8003F4A
:10C9100023F0040344E80032002AF0D0F6E71220A6
:10C92000C8E700BF9C1D0020733B0020933B002004
:10C93000C003002070B5067D044676B983681D8863
:10C9400042F22602954245D00FD842F201029542AA
:10C950004FD042F225039D4213D02A4BD3F85431D5
:10C9600020465B69BDE87040184742F25E039D4275
:10C97000F3D1032108301CF04AFFA06890F8401062
:10C980002EE0032108301CF042FF204611F092FBFC
:10C99000BFF35B8F1C4B1A68BFF35B8F920707D501
:10C9A0000C26314642F225001AF010F8002070BD26
:10C9B000BFF35B8F53E8002F42F0010143E8001002
:10C9C0000028F7D1BFF35B8FD307E9D40F4800F0FD
:10C9D000FDF8E6E7032108301CF019FFA068314696
:10C9E000FFF75CFF0646204611F064FB31462846FF
:10C9F000DAE7DA7802F07F02DA701A7922F00102BF
:10CA00001A71AAE7000000209C1D0020C00300202E
:10CA100003490448CA79C2EBC202FEF7CDBD00BF8C
:10CA200000000020DBD20400F7B51B4CBFF35B8F86
:10CA30001F462368BFF35B8F1646DA07054624D5E9
:10CA400018B96FF0010003B0F0BD01A918F0DEFBCA
:10CA500012490246284619F03CFF0028F1D1BFF3E5
:10CA60005B8F2368BFF35B8FC3F3C0051B070CD438
:10CA7000CC3C072221463846B047062807D8072273
:10CA80002946204619F054FFE5710020DBE7072313
:10CA9000B0FBF3F0E071F8E7CC000020B1D0040067
:10CAA0002DE9F04188B09C79DDF838805D791E79F8
:10CAB000DF7893F802C093F801E01B78B8F1000F1B
:10CAC0000ED0CDE90638CDE904CE1346CDE9026794
:10CAD000CDE90045084A17F067FD08B0BDE8F081D0
